:020000040800F2
:10000000003800202D020008AD380008D12E00086D
:10001000A93800088D040008653E000800000000B3
:10002000000000000000000000000000B5380008DB
:10003000B504000800000000B1380008B938000815
:10004000470200084702000847020008470200086C
:10005000470200084702000847020008470200085C
:10006000470200084702000847020008470200084C
:10007000A9040008470200084702000847020008D8
:10008000470200084702000847020008470200082C
:1000900091040008470200084702000847020008D0
:1000A0004702000889390008470200084702000893
:1000B00047020008470200084702000847020008FC
:1000C00047020008470200084702000847020008EC
:1000D000470200084702000847020008593E00088E
:1000E00047020008470200084702000847020008CC
:1000F00047020008470200084702000847020008BC
:1001000047020008470200084702000847020008AB
:10011000470200084702000895390008A139000885
:10012000470200084702000847020008470200088B
:10013000470200084702000847020008470200087B
:100140009D04000847020008470200084702000813
:10015000470200084702000847020008470200085B
:10016000470200084702000847020008470200084B
:10017000470200084702000847020008000000008C
:10018000470200084702000800F002F800F03EF8BD
:100190000AA090E8000C82448344AAF10107DA45E2
:1001A00001D100F033F8AFF2090EBAE80F0013F0F6
:1001B000010F18BFFB1A43F001031847D047000096
:1001C000F0470000103A24BF78C878C1FAD8520727
:1001D00024BF30C830C144BF04680C6070470000C1
:1001E0000023002400250026103A28BF78C1FBD840
:1001F000520728BF30C148BF0B6070471FB504F0DD
:100200009DFB00F0F7F81FBD10B510BD00F00AF916
:100210001146FFF7F3FF04F039FB00F028F903B4AF
:10022000FFF7F2FF03BC00F0F7F800000948804731
:1002300009480047FEE7FEE7FEE7FEE7FEE7FEE7C8
:10024000FEE7FEE7FEE7FEE704480549054A064BE0
:100250007047000075390008890100080008002077
:1002600000380020001800200018002053EA020C7B
:1002700000F069802DE9F04B4FF00006002B1FBF06
:10028000B3FA83F503FA05F424FA05F65E4012BFCB
:100290001643B2FA82F502FA05F4C5F120051EBF35
:1002A00022FA05FC44EA0C04203556EA044C4FEAD5
:1002B000144418BF641C4FF000084FF0000990422E
:1002C00071EB030C39D3002919BFB1FA81F701FA98
:1002D00007F6B0FA80F700FA07F6C7F120071EBF4D
:1002E00020FA07FC46EA0C062037B6FBF4FCA7EB25
:1002F0000507103F07F01F0BCBF120062CFA06F67E
:100300000CFA0BFB44BFB3460026202FA4BF5E4669
:100310004FF0000B5BEA060C08BF4FF0010B19EB26
:100320000B0948EB0608ABFB027C06FB02CC0BFB7F
:1003300003CCC01B71EB0C01C1E70B4602464146E2
:100340004846BDE8F08B13B5084318BF4FF0FF30A7
:100350000146AFF30080BDE81C4070474FF000023B
:100360000429C0F0128010F0030C00F01B80CCF1C7
:10037000040CBCF1020F18BF00F8012BA8BF20F835
:10038000022BA1EB0C0100F00DB85FEAC17C24BF89
:1003900000F8012B00F8012B48BF00F8012B704733
:1003A0004FF0000200B5134694469646203922BF0E
:1003B000A0E80C50A0E80C50B1F12001BFF4F7AF59
:1003C000090728BFA0E80C5048BF0CC05DF804EB3B
:1003D000890028BF40F8042B08BF704748BF20F8A9
:1003E000022B11F0804F18BF00F8012B70477047A7
:1003F0007047704770B5064C7C44064D7D4404E060
:100400002046016808448047241DAC42F8D170BDE5
:10041000B0450000B445000001491820ABBEFEE71E
:1004200026000200754600F02BF8AE46050069462E
:10043000534620F00700854618B020B5FFF704FFAB
:10044000BDE820404FF000064FF000074FF00008D5
:100450004FF0000BAC46ACE8C009ACE8C009ACE812
:10046000C009ACE8C00921F007018D46704710B5FE
:100470000446AFF300802046BDE81040FFF7CFBE32
:10048000004870473800002070470000FEE7000079
:1004900040F26810C2F2000000F0DCBA40F29010A6
:1004A000C2F2000000F0D6BA40F2B810C2F200006A
:1004B00000F0AABD70470000EFF3108072B600BFD5
:1004C000FEE70000B0B581B00022009290F83C2019
:1004D000012A01D1022176E0D1F800E001221FFAC1
:1004E0008EFC80F83C204FEA4C0212FA8EF3026830
:1004F000BEF10A0F32BF10321E3B0C3207241568C2
:100500009C4025EA040414608C68156804FA03F31F
:100510002B4313604A68062A07D802EB82014A1F60
:1005200001681F2351F8344F0CE001680C2A02EBDC
:10053000820203D851F8304F233A02E051F82C4F91
:10054000413A1F23934024EA03030B600D680CFA21
:1005500002F22A4342F204330A60C4F20103016842
:10056000A3F54172914208BFBEF1120F02D0914231
:1005700006D025E01D6845F480051D6091421FD11D
:100580002EF0010110291BD11968BEF1100F41F4A2
:100590000001196014D140F20001C2F200010968A3
:1005A0004DF68362C4F21B32A1FB0212910C01EBE7
:1005B000810149000091009911B100990139F9E7D1
:1005C000002180F83C10084601B0B0BD002804BFEF
:1005D0000120704710B50446006C30B9204600F089
:1005E0009BF80020606484F83C00206CC0063AD47C
:1005F000206C41F202118843023042F2043120643F
:10060000C4F20101086820F4403008600A6894E8E8
:1006100009101A43D4F810E00A604168012321F45C
:10062000807141604168C0F6007341EA0E2141606B
:10063000416821F040714160416841EA0C0141602C
:10064000816821F400618160E16882681143816002
:10065000A16A8268994222F070628260826804D145
:1006600022F040510AE0012052E01143816081688C
:1006700021F040518160E16A8268114381608168A4
:1006800021F0020181608168227E94F8203041EAE5
:1006900042018160416883B141F400614160416879
:1006A0004EF2000221F460414160616ACFF6FF72B0
:1006B000436802EB4131194301E021F400614160DC
:1006C000C16A40F2000C21F47001C162E269616903
:1006D000CFF6F07CC36A0CEB02521A43C262826806
:1006E00022F40072826094F83020836843EA422248
:1006F0008260826822F480628260826842EA81219C
:10070000816000206064216C012262F30101216498
:10071000002184F83C1010BD80B586B042F2002163
:100720000068C4F20101002288420592CDE903224B
:100730000292019201D006B080BD43F630000092D3
:10074000C4F20200436943F480634361436903F4E4
:1007500080630093009B0092036843F020030360D2
:10076000006800F02000009000984FF48060019035
:100770000320CDE9020201F5724001A900F0F8FD65
:1007800006B080BD90F82020013A012A04D8006804
:1007900000F11402002004E000F1240201204FF4D3
:1007A00080211368194311607047000010B590F85C
:1007B00020E0D0F800C0AEF1010EBEF1010FDCF870
:1007C00008E00DD81EF0E05F10D0CEF3016EBEF150
:1007D000030F11D100F1240101204FF4000235E094
:1007E00000F1240101204FF480222FE000F12401C8
:1007F00001204FF4001229E0012000FA0EF01860E9
:10080000886828B14B68CC6844EAC303034303E01B
:100810000868CB6843EA40530CEB0E10C0F88031F7
:100820000B69C0F88431097D012905D100F5C27139
:100830000B6843F480730B605168C0F88C11126828
:1008400000F5C071C0F88821002001220B681A430E
:100850000A6010BDB0B590F82020013A012A2FD8C7
:1008600046F20060C4F20000026842F00102026039
:10087000026822F47C520260D1F814E0CC694A6A22
:100880000368012C43EA022202600EF01F024FF0BF
:10089000010303FA02F2C3696FEA020C23EA0203BE
:1008A000C36113D02CBBC36803EA0C03C360CB68DD
:1008B0008C8844EA034300EBCE0423640B4611E02A
:1008C000416A41F4802141620120B0BDC3681343F5
:1008D000C3600B688C8844EA034300EBCE042364B6
:1008E00001F10C038C681B8843EA044300EBCE043F
:1008F000636443688D6943EA0204D1F810E0096A31
:10090000002D08BF03EA0C0444604369BEF1000FE8
:1009100043EA020408BF03EA0C040129446102D13E
:10092000C1691143C161016821F00101016000202A
:10093000B0BD00007047000010B590F82040013CA9
:10094000012C0CD8D0F800C079B1DCF81040A40715
:100950000FD100F1240101204FF4001270E000F1EA
:10096000240101204FF480226AE0DCF80C40A40747
:100970006AD0046804EB011CDCF8B0410CF5D87EA9
:1009800014F004049460DCF8B04119BFE40854602A
:10099000640D1460DEF80040002904F00204D46005
:1009A000DCF8B44104F00F041461DCF8B441C4F382
:1009B00007249461DCF8B4414FEA14445461DCF834
:1009C000B8211A70026802EB0112D2F8B8214FEA7E
:1009D00012225A70026802EB0112D2F8B8214FEAD3
:1009E00012429A70026802EB0112D2F8B8214FEA63
:1009F0001262DA70026802EB0112D2F8BC211A719D
:100A0000026802EB0112D2F8BC214FEA12225A719D
:100A1000026802EB0112D2F8BC214FEA12429A712D
:100A2000026802EB0112D2F8BC214FEA1262DA71BD
:100A3000006814BF00F1100100F10C010020202219
:100A40000B681A430A6010BD00F1240101204FF425
:100A50000012F5E72DE9F04F81B0044600684669C1
:100A6000D0F804908768D0F80CB0D0F810A0D0F877
:100A70001880F10703D1002530071CD423E0F907C3
:100A800010D00121BA07816009D4780700F1AA804B
:100A9000380700F1B080204600F056FA02E0204608
:100AA00000F054FA0025F80500F18480F80300F105
:100AB000AA80300707D51BF0100004D0206845F449
:100AC00000751021C160700708D51BF0080005D023
:100AD00020680821C160204600F0E6F9B00706D57D
:100AE0002068C068800702D0204600F0DFF9700659
:100AF00007D51AF0100004D0206845F48065102155
:100B00000161B00608D51AF0080005D02068082158
:100B10000161204600F0E4F9F00606D5206800697E
:100B2000800702D0204600F0DDF9B00308D519F0A7
:100B3000100005D0206810214160204600F0D4F953
:100B4000F00308D519F0080005D02068082141609D
:100B5000204600F005FA300440F18F805FEA4970CA
:100B600040F1888006F4807008EA102028435FEA8C
:100B70008871014648BF41F00201B20558BF0146E5
:100B80005FEA48700D4648BF45F00405700558BF40
:100B90000D4630056ED518F070006BD01038000986
:100BA000052862D8DFE800F0035356595C5F45F032
:100BB00008055AE020684FF48071BA0581600AD4B4
:100BC000780512D4380519D4204600F0C1F9F8038D
:100BD0007FF56FAF17E0204600F0BCF9F8037FF512
:100BE00068AF10E04FF400655DE705F50055F803C8
:100BF0007FF55FAF07E04FF4805554E705F580457A
:100C0000F8037FF556AF20684FF48031BA03816056
:100C10000AD478030FD4380313D4204600F09CF98B
:100C200030073FF548AF4EE7204600F097F9300710
:100C30003FF541AF47E705F5004530073FF53BAFCE
:100C400041E705F5803530073FF535AF3BE745F027
:100C500010050AE045F0200507E045F0400504E0F6
:100C600045F0800501E045F480752068816921F038
:100C7000700181612068042141604DB1606A40EAE1
:100C800005012046616201B0BDE8F04FFFF752BE9A
:100C900001B0BDE8F08F0000B0B5C8B1044690F8CF
:100CA000200010B9204600F071F82068016841F07A
:100CB0000101016000F032FC054600BF2068416878
:100CC000C90707D100F02AFC401B0B28F6D312E01D
:100CD0000120B0BD016821F00201016000F01EFC9E
:100CE000054600BF2068416889070DD500F016FC55
:100CF000401B0B28F6D3606A052140F40030606287
:100D0000012084F82010B0BD217E0268012922F064
:100D1000800208BF80320260617E0268012922F0F1
:100D2000400208BF40320260A17E0268012922F021
:100D3000200208BF20320260E17E0268012922F011
:100D4000100218BF10320260217F0268012922F0D0
:100D5000080208BF08320260617F0268012922F0A0
:100D6000040208BF04320260D4E901C2D4E90335A9
:100D700061691A432A431143ACF101021143C16175
:100D800000200121606284F82010B0BD10B586B04B
:100D9000006846F60002C4F2000200219042CDE94C
:100DA0000411CDE90211019133D046F20041C4F2A1
:100DB0000001884276D140F29801C2F200010A682F
:100DC00043F64000C4F20200531C0B6052B90021EC
:100DD0000091016841F000710160016801F000714B
:100DE000009100990021009150F8101C142441F04A
:100DF000080140F8101C50F8100C032100F0080006
:100E00000090009840F20040C4F2020000F500603B
:100E100034E043F64000C4F202000091016841F062
:100E200080610160016801F080610091009940F2E9
:100E30009801C2F200010A68531C0B6052B90021EC
:100E40000091016841F000710160016801F00071DA
:100E5000009100990021009150F8101C402441F0AD
:100E6000020140F8101C50F8100C602100F0020044
:100E70000090009840F20040C4F20200019102216B
:100E8000029100210391032104910921059101A9F7
:100E900000F06EFA20460021002200F0C9FB204637
:100EA00000F0B6FB06B010BD7047000070B58AB008
:100EB00040F26814C2F2000403AD01AE20460021E6
:100EC0002A463346FFF738FD40F2C800C2F2000060
:100ED00021462A46334603F01BF90AB070BD0000D4
:100EE000704700007047000070470000B0B504462E
:100EF00090F8200001281DD1022084F820002068ED
:100F0000016821F00101016000F008FB054600BF07
:100F100020684068C00713D000F000FB401B0B287E
:100F2000F6D3606A40F400306062052084F8200047
:100F30000120B0BD606A40F4002060620120B0BDB5
:100F400000206062B0BD00007047000070470000E4
:100F500070470000704700007047000070470000B5
:100F60007047000070B5866D044600F0D7FA94F81B
:100F70003510022925D105462068216C026822F02F
:100F800016020260426922F08002426109B9A16C36
:100F900019B1016821F008010160016821F0010127
:100FA000016000BF20680068C0070ED000F0B6FAEC
:100FB000401B0628F6D320206065032084F8350006
:100FC0000CE080206065012008E0E06D3F2101FA1F
:100FD00000F0B060012084F835000020002184F882
:100FE000341070BD90F83510022909D1052180F820
:100FF00035100068016821F0010101600020704790
:101000008021416501207047F0B581B00446002081
:10101000009040F20000C2F200000268D4E91660BD
:1010200048F2B51337680821C1F64E338140394282
:10103000A2FB03250CD0226813685B0708D5136850
:1010400023F004031360B160616D41F0010161653B
:1010500001218140394208D022685269120604D524
:10106000B160616D41F00201616504218140394246
:1010700008D022681268920704D5B160616D41F012
:101080000401616510218140394215D02068026851
:10109000120711D5B16002680168520306D4C90570
:1010A00006D4016821F00801016001E008033ED484
:1010B000216C09B120468847E16D202000FA01F239
:1010C0003A4240D020680368DB063CD5B26094F811
:1010D00035300268052B1AD122F0160202604269EF
:1010E00022F080024261226C0AB9A26C1AB1026835
:1010F00022F0080202603F208840B060012084F89E
:101100003500216D002084F83400D9BB3FE0016830
:10111000520310D4C90512D4016821F010010160F6
:10112000012084F83500002084F8340007E0A16C29
:101130000029BFD1C0E7080301D4616C00E0E16B76
:1011400009B120468847606D08B3606DC00717D0AD
:10115000052084F835002068A90A026822F00102FF
:10116000026000BF009A01328A42009202D80268EF
:10117000D207F7D1012084F83500002084F834002C
:10118000E16C21B1204601B0BDE8F040084701B054
:10119000F0BD00002DE9F041044600F0BFF9C4B1F4
:1011A0000546022084F835000020216884F83400C8
:1011B000086820F00100086020680168C9070BD0AA
:1011C00000F0ACF9401B0528F6D9032120220320AA
:1011D0007AE00120BDE8F081016848F23F02CFF2D9
:1011E0001002D4E9013501EA020ED4E9032143EAF1
:1011F0000E032B43D4E9056C1A43D4E90778114355
:10120000314341EA0702616A42EA0802042942EADC
:101210000C0303D1D4E90B273A431343036042691B
:10122000042922F0070241EA02012DD1D4E90A5330
:1012300041EA050143B3BCF5005F08D0BCF1000FE3
:1012400012D1022D16D0012D07D09DB119E0032D2A
:1012500017D8DFE805F00B0F0B02A3F1C072B2FA4A
:1012600082F252094AB90FE0032D02D2012222B9BB
:101270000AE006D1C3F3006232B10121402201200D
:1012800022E00022002AF8D100F0F8024AF6AB234F
:10129000103ACAF6AA23A2FB033744F6841341612D
:1012A0003909C0F60003595C40F2FF3398435F2AC6
:1012B0004FF03F0288BF0430C4E9160102FA01F181
:1012C0008160002201210020626584F83510BDE8AC
:1012D000F081000070B590F834C0BCF1010F45D02A
:1012E0004FF0010C80F834C0D0F858E090F835C0C9
:1012F000BCF1010F37D14FF0020C80F835C04FF030
:10130000000CC0F854C0D0F800C08468056CC06DF3
:10131000DCF80060402C26F48026CCF80060CCF885
:1013200004300B4604BF13460A463F2101FA00F081
:10133000CCF80830CCF80C20CEF80800DCF800001F
:1013400040F01600CCF800002DB1DCF8000040F0B1
:101350000800CCF80000DCF8000040F00100CCF8F8
:101360000000002070BD002180F83410022070BD04
:101370002DE9F04F82B000F13E4241F6004502F106
:10138000FF77C4F2020508224FEAB726A84208BF39
:101390000722072E38BF4FEAB7224FF0010A002478
:1013A00000274FF00009009209E000BF09F1010990
:1013B0000237B9F1100F04F1040400F0A6800A68A6
:1013C0000AFA09FC12EA0C08F0D0D1F804B00BF0CC
:1013D000030AAAF10102012A12D882680323CE6807
:1013E00003FA07FE22EA0E02BE40324382604268E0
:1013F000CBF3001622EA0C0206FA09F632434260E9
:10140000BAF1030F1DD0C26803238D6803FA07F6F3
:10141000B24305FA07F63243BAF1020FC26010D1A7
:101420006FF0030202EA59020244D2F820C004F02D
:101430001C050F230E69AB402CEA0303AE40334377
:101440001362026803234E68BB409A4306F003030D
:10145000BB401A4316F4403F4FF0010A0260A5D08A
:10146000002243F644030192C4F202031A6843F6D1
:10147000004E42F480421A601A68C4F2010E02F46F
:1014800080420192019A29F003024FF6084C7244FF
:10149000CFF6FF7C52F80C3004F00C060F25B54057
:1014A000AB43009D05FA06F6334342F80C30DEF8F4
:1014B00008204B6842EA080643F60C4CDD0258BF90
:1014C00022EA0806CEF80860C4F2010CDCF800201D
:1014D0009D0242EA080658BF22EA0806CCF80060DE
:1014E000DEF804209D0342EA080658BF22EA0806F7
:1014F000CEF80460DEF80020DB0342EA080658BF9D
:1015000022EA0806CEF8006050E702B0BDE8F08F8E
:10151000002A08BF090481617047000040F2FC7096
:10152000C2F200000068704701684AF6AA22002053
:101530000A60704740F2300040F2FC71C2F20000D5
:10154000C2F2000100780A68104408607047000089
:1015500080B543F60040C4F20200016841F4007116
:101560000160016841F480610160016841F48071AB
:101570000160032000F088F8002000F005F800F07A
:101580002BF8002080BD0000B0B540F23002C2F25E
:10159000000240F200011278C2F200014FF47A73A7
:1015A0000968B3FBF2F20446B1FBF2F1084600F021
:1015B000D9FB0F2C4FF001050CD858B94FF0FF3074
:1015C00021460022002500F033F840F23400C2F238
:1015D000000004602846B0BD82B0002043F6400100
:1015E0000190C4F202014A6842F480424A604A68AB
:1015F00002F480420192019A0090086840F0805005
:101600000860086800F080500090009802B07047B1
:10161000002848BF704700F01F01012202FA01F1C3
:101620004EF200124009CEF2000242F8201070473C
:1016300010B54EF60C5CCEF2000CDCF80030C3F3B3
:10164000022E8EF00704042C28BF0424BEF10303ED
:101650004FF0FF3E0EFA04F438BF0023A143994037
:101660000EFA03F39A43114300F1604200F00F03B6
:10167000090102F56442043B6344002848BF03F1BA
:101680000C02117010BD00004EF60C51CEF200019C
:101690000A684FF6FF031A4060F30A2242F08060A6
:1016A00040F0FD70086070472DE9F041002800F01F
:1016B0008B8043F60808C4F202080446D8F8F80301
:1016C0000D4600F00700884207D288F8F853D8F892
:1016D000F80300F00700A84276D12068810717D5EB
:1016E000410705D5D8F8001041F4E051C8F80010C2
:1016F000010705D5D8F8001041F46041C8F8001082
:10170000D8F80010A26821F0F0011143C8F80010C9
:10171000C0073FD1D8F8F80300F00700A84207D966
:1017200088F8F853D8F8F80300F00700A8424BD126
:101730002068410707D5D8F80010E26821F4E0518D
:101740001143C8F80010000708D5D8F80000216937
:1017500020F4604040EAC100C8F8000000F07CF8C6
:10176000D8F8001044F65612C1F30311C0F6000277
:10177000515C40F2000220FA01F140F23400C2F262
:1017800000000068C2F200021160FFF7FDFE0020B9
:10179000BDE8F0816068811E022907D258F8081C54
:1017A00089015CBF0120BDE8F08110E0012807D16C
:1017B00058F8081C89035CBF0120BDE8F08106E0F1
:1017C00058F8081C890702D40120BDE8F081D8F838
:1017D000001021F003010843C8F80000FFF79EFE47
:1017E000064641F2883700BFD8F80000616800F073
:1017F0000C00B0EB810F8DD0FFF790FE801BB8423C
:10180000F2D90320BDE8F08140F2000043F6080160
:10181000C2F20000C4F202010068096844F66612D0
:10182000C1F38221C0F60002515CC840704700003D
:1018300040F2000043F60801C2F20000C4F20201C7
:101840000068096844F66612C1F34231C0F600022E
:10185000515CC8407047000010B543F60404C4F260
:101860000204606800F00C0008280AD0042819BFA0
:1018700042F20040C0F2F40041F60030C0F2B7007E
:1018800010BD206821682368490241F60031C0F28A
:10189000B70100F03F02C3F388105CBF42F2004181
:1018A000C0F2F401A1FB00010023FEF7DFFC216878
:1018B0000222C1F3014102EB4101B0FBF1F010BD86
:1018C0002DE9F04182B0002800F0A18004460078A4
:1018D00043F60006C007C4F2020643D0B06800F029
:1018E0000C00042805D1306880033BD56068C8BB74
:1018F0008DE0B06800F00C00082802D1706840024A
:10190000F1D46568B5F5A02F0AD0B5F5803F0BD0AE
:10191000306820F480303060306820F4802006E0A9
:10192000306840F480203060306840F480303060AF
:10193000FFF7F4FD002D054611D000BF306880038D
:1019400010D4FFF7EBFD401B6428F7D920E100BF5E
:10195000FFF7E4FD401B64284FF0030054D83068C3
:101960008003F5D4207880071AD5B06810F00C0FEA
:1019700009D0B06800F00C00082840F0888070683A
:10198000400200F184803068800702D5E0680128B9
:101990003DD13068216920F0F80040EAC100306094
:1019A0002078000737D4207840074AD4A56955B37A
:1019B000B06800F00C00082840F09C80012D26D073
:1019C0007068E16900F480028A4220D1216A00F047
:1019D0003F028A421BD147F6C071626A0140B1EBF7
:1019E000821F14D1A16A4FF6FF73C903994300F413
:1019F0004032A1F580318A4209D1E16A00F070607D
:101A0000B0EB016F03D1002002B0BDE8F0810120EE
:101A100002B0BDE8F0816069002840F20000C4F225
:101A2000472056D00121C0F8801EFFF777FD0546FC
:101A3000706F8007B7D4FFF771FD401B0228F7D9FC
:101A4000A6E0306C10F080580AD100200190306C74
:101A500040F080503064306C00F08050019001986C
:101A600047F20007C4F200073868C00524D438687C
:101A700040F480703860FFF751FD05463868C005B6
:101A80001AD4FFF74BFD401B0228F7D980E0E0682D
:101A9000002851D00020C4F2472001210160FFF747
:101AA0003DFD0546306880073FF573AFFFF736FD13
:101AB000401B0228F6D96BE0A568052D50D0012DFA
:101AC00052D0306F20F001003067306F20F00400FA
:101AD0004DE00021C0F8801EFFF720FD054600BF45
:101AE000706F80077FF55FAFFFF718FD401B02287E
:101AF000F6D94DE00027C4F2472700203866FFF7EB
:101B00000DFD022D05460BD13068800158D5FFF739
:101B100005FD401B02284FF00300F5D974E700BF14
:101B2000306880017FF56FAFFFF7F8FC401B02289B
:101B30004FF00300F4D967E70020C4F247200021EA
:101B40000160FFF7EBFC0546306880077FF528AFA2
:101B5000FFF7E4FC401B02284FF00300F4D953E7E1
:101B6000306F40F004003067306F40F001003067A4
:101B7000FFF7D4FC002D054641F2883714D000BF92
:101B8000306F800713D4FFF7C9FC401BB842F7D968
:101B9000032002B0BDE8F081FFF7C0FC401BB84253
:101BA0004FF003003FF630AF306F8007F4D4B8F148
:101BB000000F7FF4FBAE306C20F080503064F5E60F
:101BC00004F11C052FCD084340EA8210D9034FF6DB
:101BD000FF729143A1F5803140EA056008437060CF
:101BE00001203866FFF79AFC044600BF3068800188
:101BF0003FF509AFFFF792FC001B02284FF00300EE
:101C0000F4D901E770B538B10446406A30B100201C
:101C1000206104F1140007E0012070BD6068B0F598
:101C2000827F03D004F11C00002101600026A6621F
:101C300094F8510020B9204684F8506000F03CF838
:101C4000022084F8510094E80F0001F482710568C5
:101C500002F4044225F040050560114403F40062DB
:101C60002369114403F002026369114403F0010285
:101C7000A369E569114403F40072114405F03802C8
:101C8000256A114405F08002A56A114305F400524B
:101C900011430160626A042101EA134102F010025B
:101CA00011444160C16921F40061C1610120666590
:101CB00084F85100304670BD2DE9F04387B043F2FF
:101CC00000050068C4F201050026A8420696CDE989
:101CD00004660396029602D007B0BDE8F08343F68F
:101CE00030000196C4F20200416902AC41F4805117
:101CF000416141694FF0020801F48051019101995D
:101D0000019601684FF0030941F00201016001688A
:101D1000052701F00201019101990196016841F046
:101D2000010101600068214600F001000190019866
:101D30001820029005F55440CDE90386CDF81490A3
:101D40000697FFF715FB8020CDE9020805F5504006
:101D50002146CDE904690697FFF70AFB07B0BDE805
:101D6000F0830000411E0020B0EB116F1CBF01206A
:101D700070474EF21002CEF2000251604EF623512F
:101D8000CEF20001F0230B700721906011607047C4
:101D90007047000070470000B0B590F83C20012A61
:101DA00004BF0220B0BD01F108053CCDD1E900CE51
:101DB00023F47C5322F470521A432EF4F0431A4356
:101DC0002CF4E0431A4324F4C0431A432A43C9695C
:101DD00022F48042036811435964002180F83C10CA
:101DE0000846B0BD10B590F83C20012A4FF0020221
:101DF00052D0012380F83C3080F83D200268D2F8B0
:101E000004E0D2F808C00C682EF07003234341F2BE
:101E1000FF74C4F20004A24253600DDC40F2FF7371
:101E2000C4F200039A4215DCB2F1804F29D040F28F
:101E30000043C4F2000322E040F2FF33C4F2010386
:101E40009A4212DC41F60003C4F200039A4218D011
:101E5000002312E040F60003C4F200039A4210D0BF
:101E600040F60043C4F2000309E044F20003C4F268
:101E700001039A4205D040F20043C4F201039A42A2
:101E800004D149682CF0800319439160012100229C
:101E900080F83D1080F83C20104610BD002804BF9B
:101EA0000120704710B5044690F83D0028B9002085
:101EB00084F83C00204600F01FF8022084F83D0022
:101EC0002068211D01F072FD012084F8460084F88D
:101ED0003E0084F83F0084F8400084F8410084F814
:101EE000420084F8430084F8440084F8450084F8F4
:101EF0003D00002010BD000080B582B0006840F6B3
:101F0000FF71C4F2000188421FDC40F20041C4F2BC
:101F10000001884240D040F60001C4F2000188422E
:101F20004BD040F60041C4F20001884243D100206A
:101F3000019043F64000C4F20200016841F008013C
:101F40000160006800F0080044E041F20001C4F2C2
:101F50000001884242D041F20041C4F200018842AF
:101F600052D00021C4F20101884224D10020019006
:101F700043F64000C4F202004168002241F0010132
:101F800041604068002100F0010001900198192093
:101F9000FFF74EFB19204CE00020019043F6400073
:101FA000C4F20200016841F002010160006800F023
:101FB00002000190019802B080BD0020019043F61C
:101FC0004000C4F20200016841F0040101600068B1
:101FD00000F004000190019802B080BD0020019043
:101FE00043F64000C4F202000168002241F01001F3
:101FF00001600068002100F0100001900198362077
:10200000FFF716FB362014E00020019043F6400055
:10201000C4F202000168002241F020010160006862
:10202000002100F02000019001983720FFF700FB0D
:10203000372002B0BDE88040FFF7EABA90F83D10C3
:1020400001291CBF01207047022180F83D10006863
:1020500041F2FF72C168C4F20002904241F00101F6
:10206000C1600DDC40F2FF71C4F20001884215DC52
:10207000B0F1804F29D040F20041C4F2000122E0CB
:1020800040F2FF31C4F20101884212DC41F6000146
:10209000C4F20001884218D0002112E040F600018D
:1020A000C4F20001884210D040F60041C4F20001A1
:1020B00009E044F20001C4F20101884205D040F277
:1020C0000041C4F20101884206D1816801F0070194
:1020D000062904BF00207047016841F0010101603A
:1020E0000020704780B590F83C20012A4FF0020292
:1020F00000F0C280012380F83C3080F83D20D0F809
:1021000000C04FF67772DCF8083023EA0202CCF800
:1021100008200B684F2B28DC1F2B43DD202B44D0DD
:10212000302B42D0402B40F0A980D1F804E0C968A0
:10213000DCF82030DCF8202022F00102CCF820204E
:10214000DCF8182022F0F00242EA011123F00A0222
:1021500042EA0E02CCF81810CCF82020DCF8081067
:1021600041F0470121F030017DE06F2B25DDB3F513
:10217000005F46D0B3F5805F77D0702B7ED1D1E978
:1021800001E3C968DCF8082043EA0E0322F47F4229
:1021900043EA01211143CCF80810DCF8081041F0A3
:1021A000770160E00BB1102B68D1DCF8081021F04A
:1021B0007001194341F0070155E0502B34D0602BDA
:1021C0005CD1D1F804E0C968DCF8203023F01003BA
:1021D000CCF82030DCF81830DCF8202023F47043F1
:1021E00022F0A00243EA013142EA0E12CCF81810A4
:1021F000CCF82020DCF8081041F0670121F0100134
:1022000031E0D1E901E3C968DCF8082043EA0E03B4
:1022100022F47F4243EA01211143CCF80810DCF894
:10222000081041F480411EE0D1F804E0C968DCF8F0
:102230002030DCF8202022F00102CCF82020DCF84D
:10224000182022F0F00242EA011123F00A0242EAC9
:102250000E02CCF81810CCF82020DCF8081041F061
:10226000570121F02001CCF808100022012180F84C
:102270003D10002180F83C10104680BD0122F5E79A
:102280007047000010B5044600680169890744BF23
:10229000C1685FEA81713FD420680169490744BF82
:1022A000C1685FEA417143D420680169090744BFEE
:1022B000C1685FEA017148D420680169C90644BF5A
:1022C000C1685FEAC1614CD420680169C9071CBFBD
:1022D000C1685FEAC17151D120680169090644BF34
:1022E000C1685FEA016150D420680169490644BFB2
:1022F000C1685FEA41614FD421680869800646BF22
:10230000C8685FEA806010BD6FF0200220460A6155
:10231000BDE81040FFF73EBD6FF0020101610121F1
:102320002177806980073ED02046FFF7A9FF40E073
:102330006FF00401016102212177806910F4407F70
:102340003AD02046FFF79CFF3CE06FF008010161A6
:1023500004212177C069800737D02046FFF790FF1E
:1023600039E06FF01001016108212177C06910F494
:10237000407F33D02046FFF783FF35E06FF0010147
:102380000161204600F06AFAA6E76FF08001016162
:102390002046FFF7FDFCA7E76FF0400101612046F2
:1023A00000F0B6FAA8E7204600F0FEF8204600F05C
:1023B00053FA002020776FE7204600F0F5F820461A
:1023C00000F04AFA002020776EE7204600F0ECF893
:1023D000204600F041FA002020776DE7204600F00B
:1023E000E3F8204600F038FA002020776CE7000080
:1023F000F0B587B0006840F6FF31C4F200018842B2
:102400004FF000010691CDE90411CDE9021130DD54
:1024100040F60041C4F20001884255D040F200412C
:10242000C4F2010188426DD00021C4F2010188424A
:1024300040F0B880002043F630010190C4F2020160
:102440000A6842F010020A60096801F01001019167
:1024500001994FF4D44102910221CDE90310059076
:102460000120069040F60000C4F2020000F500646E
:1024700094E040F20041C4F20001884273D040F67B
:102480000001C4F20001884240F08C80002043F635
:1024900030010190C4F202010A6842F008020A60A9
:1024A000096801F00801019101994FF480410291FE
:1024B0000221CDE90310CDE9050140F60000C4F288
:1024C000020000F5806469E0002043F630010190CD
:1024D000C4F202010A6842F080020A60096801F051
:1024E0008001019101994FF4A05102910221CDE99F
:1024F0000310CDE9050140F60000C4F2020000F52A
:10250000A0544BE0002543F630000195C4F20200D0
:10251000016840F6000441F4807101600168C4F272
:10252000020401F48071019101990195016802266C
:1025300041F0040101600068032700F004000190ED
:102540000198C020029004F5C05002A9CDE90365AE
:1025500005950697FEF70CFF4020CDE90206CDE970
:10256000045506971AE0002043F630010190C4F2AA
:1025700002010A6840F6000442F004020A60096899
:10258000C4F2020401F00401019101994FF4807139
:1025900002910221CDE90310CDE9050102A92046EF
:1025A000FEF7E6FE07B0F0BD704700002DE9F043EE
:1025B00090F83C30012B04BF0220BDE8F0834FEAC5
:1025C000B2020123032A80F83C3000F2F580DFE8F4
:1025D00002F0023E7DBD036840F200471A6A43F4F0
:1025E000806522F001021A621C6A1A46D3F804E0E0
:1025F00052F818CF8E6824F00204C4F20107BD42DD
:1026000044EA060405D1CE6824F00C0426F0040642
:1026100034430E68BD4207D1D1E905572EF4407E00
:1026200045EA0E0545EA070E2CF073073743C3F859
:1026300004E09F614F6809695F631C629F6947F00E
:1026400008079F619F6927F004079F61B0E0036856
:1026500040F200481A6A43F4806522F010021A62C0
:102660001C6A1A46D3F804C052F818EF8F6824F099
:102670002004C4F20108454544EA071407D1CF6895
:102680006FF0400624F0C00406EA07163443D1F880
:102690000090454506D1D1E905562CF440672E43FC
:1026A00047EA860C2EF4E64747EA0927C3F804C038
:1026B0009F614F6809699F631C629F6947F40067C7
:1026C0009F619F6927F480679F6170E0036840F213
:1026D00000481A6A43F4806522F480721A621C6A08
:1026E0001A46D3F804C052F81CEF8F6824F4007423
:1026F000C4F20108454544EA072408D1CF6840F2F6
:10270000FF463F0224F4406427EA06063443D1F82A
:102710000090454506D1D1E905562CF440572E438B
:1027200047EA061C2EF0730747EA0907C3F804C0FE
:10273000DF614F680969DF631C62DF6947F00807E2
:10274000DF61DF6927F00407DF6131E0036840F2F1
:1027500000451A6A43F4806722F480521A621A46CE
:10276000D3F820C05C6852F81CEFD1F800808E6866
:10277000C4F20105AF4204D14D6924F4804444EA17
:1027800085142CF4005747EA06372EF4E64646EA4D
:1027900008265C60DE614E6809691E641F62DF699D
:1027A00047F40067DF61DF6927F48067DF610902B2
:1027B0001368194300231160002180F83C1018466B
:1027C000BDE8F083002804BF0120704710B504461F
:1027D00090F83D0028B9002084F83C00204600F025
:1027E0001FF8022084F83D002068211D01F0DEF86A
:1027F000012084F8460084F83E0084F83F0084F805
:10280000400084F8410084F8420084F8430084F8D2
:10281000440084F8450084F83D00002010BD00000D
:1028200081B0006840F20041C4F20101884201D049
:1028300001B070470020009043F64400C4F202004B
:10284000016841F002010160006800F002000090A0
:10285000009801B0704700007047000010B52DEDE2
:10286000048B006841F20041C4F20001884202D0AA
:10287000BDEC048B10BD40F24050C2F20000016874
:102880000131016040F2E070C2F20000012101F06C
:10289000B5FF022809D140F29C00C2F20000BDEC55
:1028A000048BBDE8104001F039BD40F2E074C2F283
:1028B00000042046032101F08DFF9FED139A20466E
:1028C000022120EE098A01F085FF2046002120EE3A
:1028D000099A01F07FFF9FED0D1A40F29C04C2F2AD
:1028E000000420EE011A2046B0EE480AF0EE490A34
:1028F00001F064FF204601F02BFDBDEC048BBDE828
:10290000104001F0EBBF00BF0000C8420000484388
:10291000704700007047000070470000B0B582B0FB
:10292000044600680168C368426901F02F05202D44
:1029300003F0200506D12DB1204602B0BDE8B0401D
:1029400001F066B95FEA017C1EBF02F0010E03F4DC
:10295000907212EB0E0253D1226B012A05D111F0B5
:10296000100218BF13F0100236D10A0622D513F058
:1029700080021FD094F83D1021293FD1A168B1F504
:10298000805F03D12169002900F03F81216A4A1C40
:10299000226209784160E18C01390A04E1842DD179
:1029A000C16821F08001C160C16841F04001C1608F
:1029B00002B0B0BD490621D513F040011ED0C16858
:1029C00021F04001C1602021204684F83D1002B072
:1029D000BDE8B04000F07ABA002101910168019190
:1029E0004168019101994069400611D4A08DE18DA3
:1029F000E28D002A18BF884240F0DB8002B0B0BDF3
:102A0000C80718BF13F4807045D1480749D44FE078
:102A1000A06B016849688AB2002AEFD0A38D9A4260
:102A2000ECD2E185C069B0F5807F30D0206850E8F5
:102A3000030F216820F4807041E80302002AF5D1D9
:102A4000206850E8050F216820F0010041E80502E8
:102A5000002AF5D1206850E8050F216820F04000D9
:102A600041E80502002AF5D1202084F83E0000202C
:102A7000206300BF206850E8030F216820F0100099
:102A800041E80302002AF5D1A06BFEF76BFAA08D96
:102A9000E18D401AB2E0206C40F00100206448074C
:102AA00006D5BEF1000F03D0206C40F00200206478
:102AB000880706D5BEF1000F03D0206C40F004005B
:102AC0002064BCF1000F09D545EA0E00B0FA80F091
:102AD000400903D1206C40F008002064206C0028DD
:102AE0003FF48CAF11F0200018BF002D02D020461B
:102AF00001F08EF820684069216C00F0400001F080
:102B00000801401848D000BF206850E8030F216832
:102B100020F4907041E80302002AF5D1206850E8C3
:102B2000050F216820F0010041E80502002AF5D1D7
:102B3000206B01280AD100BF206850E8030F2168EC
:102B400020F0100041E80302002AF5D1202084F88B
:102B50003E000020206320684069400623D500BF66
:102B6000206850E8050F216820F0400041E8050288
:102B7000002AF5D1A06BB0B143F6D121C0F6000117
:102B80000165FEF72FFA00283FF438AFA06B016D06
:102B900002B0BDE8B04008472046FFF7BDFE002068
:102BA000206402B0B0BD204602B0BDE8B040FFF7DF
:102BB000B3BE401A216851E8031F226821F49071C6
:102BC00042E80313002BF5D1216851E8051F226864
:102BD00021F0010142E80513002BF5D1202184F8F2
:102BE0003E100021216300BF216851E8031F2268C5
:102BF00021F0100142E80313002BF5D181B22046E9
:102C000002B0BDE8B040FFF785BE216A31F8022B63
:102C10006FF35F2242602162BDE60000002804BF1E
:102C20000120704710B5044690F83D0028B90020F7
:102C300084F83C00204600F021F8242084F83D0070
:102C40002068C16821F40051C160204601F040F8BD
:102C50002068016921F490410161416921F02A0154
:102C60004161C16841F40051C1600020202120640D
:102C700084F83D1084F83E1010BD00002DE9F043AB
:102C800087B00446006844F60001C4F20001002643
:102C90008842CDE90566CDE90366029653D041F23C
:102CA0000041C4F20101884200F0A28041F200011B
:102CB000C4F20101884240F0C680002643F630008D
:102CC0000196C4F202004169002441F01001416103
:102CD0004169C4F2020401F01001019101990196C9
:102CE000016802AD41F00201016001684FF0020885
:102CF00001F0020101910199019601684FF0030969
:102D000041F0010101600068072700F00100019017
:102D100001988020029004F580602946CDE9038661
:102D2000CDF814900697FEF723FB4FF40070CDE921
:102D3000020820462946CDE904690697FEF718FBEC
:102D400007B0BDE8F08343F630000196C4F20200FC
:102D5000016941F480210161016901F4802101913F
:102D600001990196016841F004010160006802A91F
:102D700000F00400019001984FF44060029002209E
:102D8000CDE9030603200590072006900020C4F239
:102D9000020000F50060FEF7EBFA40F2B81546F2CB
:102DA0002800C2F20005C4F202004FF0006185E87D
:102DB00043004FF440304FF48062C5E908062846CE
:102DC000C5E90362C5E90566EE61FEF7E3F900288F
:102DD00018BFFDF771FB272000210022A563AC631B
:102DE000FEF726FC2720FEF713FC07B0BDE8F083B2
:102DF000002043F630010190C4F202014A6942F01A
:102E000020024A614A6902F020020192019A01906F
:102E10000A6842F040020A60096801F0400101912D
:102E200001994FF4844102910221CDE9031003205E
:102E30000590082006900020C4F2020000F5C05062
:102E400002A9FEF795FA07B0BDE8F08310B590F837
:102E50003E30202B0BD100294FF0010418BF002A6F
:102E600001D1204610BD90F83C30012B01D1022049
:102E700010BD0123002480F83C30046300F09EFF65
:102E8000204610BD10B540F2B841C2F20001006802
:102E90000968884218BF10BD40F21820C2F2000035
:102EA000FEF742FB40F2E074C2F20004204601F05B
:102EB00059FC40F2B840C2F2000021461222BDE89F
:102EC0001040FFF7C3BF00007047000070470000CC
:102ED000FEE7000010B584B040F22010C2F20000FE
:102EE00042F2002C4FF080544FF000620021C4F2F7
:102EF000010C4FF48033C0E90A240124CDE902110A
:102F0000CDE90011017680F82010C46180F83010FE
:102F1000C0E900C3C0E90211C0E90414FDF756FB83
:102F2000002818BFFDF7C8FA0820CDE900040220E8
:102F3000029040F22010C2F200006946FDF7C2FA8A
:102F4000002818BFFDF7B8FA04B010BD80B540F2F4
:102F5000681046F20041C2F20000C4F200010322F0
:102F6000002380E80E0000F10C014FF4102C4FF408
:102F7000001E81E808504FF480710183C0F81A30B8
:102F8000FDF78AFE002808BF80BDBDE88040FDF740
:102F900093BA000080B540F2901046F60001C2F2EC
:102FA0000000C4F200010322002380E80E0000F1BB
:102FB0000C014FF4102C4FF4001E81E808504FF420
:102FC00080710183C0F81A30FDF766FE002808BF43
:102FD00080BDBDE88040FDF76FBA000080B582B0CB
:102FE0000020019043F63000C4F202000168002284
:102FF00041F4001101600068002100F4001001900C
:1030000001980C20FEF714FB0C2002B0BDE88040B4
:10301000FEF7FEBA2DE9F04F87B0002543F63000E9
:103020000695CDE90455CDE902550195C4F202009B
:103030000168002441F0100101600168C4F202043B
:1030400001F01001019101990195016804F5E05624
:1030500041F0020101600168002201F002010191CA
:103060000199019501684FF4006B41F04001016046
:10307000016801F04001019101990195016841F059
:1030800008010160016801F00801019101990195B1
:10309000016841F004010160016801F0040101913F
:1030A00001990195016841F001010160016801F099
:1030B0000101019101990195016841F4807101605C
:1030C000016801F48071019101990195016841F055
:1030D00080010160016801F0800101910199019571
:1030E000016841F02001016000684FF4006100F0C8
:1030F0002000019001983046FEF70AFA2046102180
:1031000001224FF00109FEF703FA04F580684046FA
:1031100001210122FEF7FCF949F2FF5002AF0290B3
:103120004FF0030A04F580503946CDE903A5FEF7B8
:103130001FF94FF60670CDE9020A4046394604955C
:10314000FEF716F94BF6FF50CDE9020A04F5C05020
:1031500039460495FEF70CF94BF6FC70CDE9020AEE
:1031600004F5406039460495FEF702F94FF2BF209E
:10317000CDE9020A04F5006039460495FEF7F8F837
:1031800049F66E50CDE9020A204639460495FEF70D
:10319000EFF840F63F70CDE9020A04F500503946D9
:1031A0000495FEF7E5F84EF2FC30CDE9020A304610
:1031B00039460495FEF7DCF84FF6FF30CDE9020AF8
:1031C00004F5A05039460495FEF7D2F8304639464A
:1031D000CDE902B9CDE90455FEF7CAF84FF48810DD
:1031E000CDE9030520463946CDF80890FEF7C0F832
:1031F0001020CDE9020920463946CDE90495FEF7B5
:10320000B7F840463946CDE90299CDE90495FEF775
:10321000AFF807B0BDE8F08FB0B540F2242043F21C
:103220000001C2F20000C4F201014FF482720023D7
:1032300080E80E0000F10C014FF0020C4FF0010E7F
:103240004FF40074182581E808500A21C0E90645AA
:10325000C0E90833C0E90A31FEF7D4FC002808BFF2
:10326000B0BDBDE8B040FDF727B9000010B596B07D
:1032700040F27C2000220021C2F20000C4F20102D0
:103280004FF6FF731591CDE91311CDE91111CDE979
:103290000F11CDE90D11CDE90B11CDE90911CDE9E2
:1032A0000711CDE90511CDE90311CDE90111C0E9FF
:1032B0000021C0E90213C0E904118161FEF7EEFDAF
:1032C000002818BFFDF7F8F84FF48050129040F234
:1032D0007C20C2F2000012A9FEF704FF002818BFEC
:1032E000FDF7EAF840F27C20C2F20000FFF76AFA2C
:1032F000002818BFFDF7E0F840F27C200024C2F25D
:10330000000010A9CDE91044FEF76CFD002818BF9D
:10331000FDF7D2F86020CDE9090440F27C20C2F22A
:10332000000009A90022CDE90B44CDE90D440F941A
:10333000FFF73CF9002818BFFDF7BEF840F27C20EB
:10334000C2F2000009A90422FFF730F9002818BFD3
:10335000FDF7B2F840F27C20C2F2000009A9082271
:10336000FFF724F9002818BFFDF7A6F840F27C20EB
:10337000C2F2000009A90C22FFF718F9002818BFB3
:10338000FDF79AF800200590CDE90300CDE9010092
:103390004FF40051089040F27C200691C2F20000E8
:1033A00001A9FEF7F9FC002818BFFDF785F840F2E7
:1033B0007C20C2F20000FFF71BF816B010BD000021
:1033C00010B58EB040F2C42040F200420021C2F29B
:1033D0000000C4F200024FF6FF730D91CDE90B110E
:1033E000CDE90911CDE90711CDE90511CDE90311A9
:1033F000CDE90111C0E90021C0E902130161816139
:10340000FEF74CFD002818BFFDF756F84FF480502A
:103410000A9040F2C420C2F200000AA9FEF762FE40
:10342000002818BFFDF748F840F2C420C2F200009F
:10343000FFF7C8F9002818BFFDF73EF840F2C42096
:103440000024C2F2000008A9CDE90844FEF7CAFC36
:10345000002818BFFDF730F86020CDE9010440F2E4
:10346000C420C2F2000001A9082203940594FFF7CA
:103470009DF8002818BFFDF71FF840F2C420C2F2E3
:103480000000FEF7B5FF0EB010BD000010B58EB005
:1034900040F20C3040F600020021C2F20000C4F2FB
:1034A00000024FF6FF730D91CDE90B11CDE9091123
:1034B000CDE90711CDE90511CDE90311CDE90111E0
:1034C000C0E90021C0E90213016180218161FEF79A
:1034D000E5FC002818BFFCF7EFFF4FF480500A907E
:1034E00040F20C30C2F200000AA9FEF7FBFD0028F2
:1034F00018BFFCF7E1FF40F20C30C2F20000FFF70A
:1035000061F9002818BFFCF7D7FF40F20C30002407
:10351000C2F2000008A9CDE90844FEF763FC0028C8
:1035200018BFFCF7C9FF6020CDE9010440F20C3060
:10353000C2F2000001A9082203940594FFF736F8AF
:10354000002818BFFCF7B8FF40F20C30C2F20000B0
:10355000FEF74EFF0EB010BD10B58EB040F25430E5
:1035600040F600420021C2F20000C4F200026323D0
:103570000D91CDE90B11CDE90911CDE90711CDE987
:103580000511CDE90311CDE90111C0E90021C0E920
:10359000021301618161FEF781FC002818BFFCF76E
:1035A0008BFF4FF480500A9040F25430C2F200007A
:1035B0000AA9FEF797FD002818BFFCF77DFF40F22F
:1035C0005430C2F20000FFF7FDF8002818BFFCF7E6
:1035D00073FF40F254300024C2F2000008A9CDE984
:1035E0000844FEF7FFFB002818BFFCF765FF6020CA
:1035F000CDE9010440F25430C2F2000001A90022DA
:1036000003940594FEF7D2FF002818BFFCF754FF7F
:1036100040F25430C2F2000001A90822FEF7C6FFB2
:10362000002818BFFCF748FF40F25430C2F20000F7
:10363000FEF7DEFE0EB010BD10B582B040F29C3039
:1036400041F200010024C2F20000C4F2000140F285
:10365000E733CDE90044532280E81600C36084615B
:10366000FEF71CFC002818BFFCF726FF40F29C3038
:10367000C2F200006946CDE90044FEF7B3FB002822
:1036800018BFFCF719FF02B010BD000010B582B0E2
:1036900040F2E43041F20041C2F20000C4F2000105
:1036A0000024532240F2E73380E816008021CDE960
:1036B0000044C3608161FEF7F1FB002818BFFCF7EE
:1036C000FBFE40F2E430C2F200006946CDE900445E
:1036D000FEF788FB002818BFFCF7EEFE02B010BD15
:1036E00010B592B040F22C4040F200410024C2F2EA
:1036F0000000C4F201014FF6FF721194CDE90F44AE
:10370000CDE90D44CDE90B44CDE90944CDE90744A9
:10371000CDE90544CDE90344CDE90144C0E90014F5
:10372000C0E90242C0E904448461FFF74BF8002875
:1037300018BFFCF7C1FE40F22C40C2F2000010A9F5
:10374000CDE91044FEF74EFB002818BFFCF7B4FE8D
:10375000602009900020CDE90A00CDE90C00CDE9F8
:103760000E0040F22C40C2F2000009A90022FEF730
:103770001DFF002818BFFCF79FFE40F22C40C2F24C
:10378000000009A90422FEF711FF002818BFFCF76A
:1037900093FE40F22C40C2F2000009A90822FEF775
:1037A00005FF002818BFFCF787FE00200590CDE933
:1037B0000300CDE901004FF40051089040F22C4085
:1037C0000691C2F2000001A9FEF7E6FA002818BF30
:1037D000FCF772FE40F22C40C2F20000FEF708FE39
:1037E00012B010BD80B540F2744041F20001C2F247
:1037F0000000C4F2010148F2A06200234FF00C0C5B
:10380000C0F2010280E80E00C0E90333C0E905C33D
:10381000C361FFF703FA002808BF80BDBDE8804000
:10382000FCF74ABE10B540F2B84044F6000C48F22E
:10383000A062C2F20000C4F2000CC0F201024FF418
:10384000805300214FF4806E0424C0E900C2C0E917
:103850000231C0E904E4C0E90611FFF7DFF90028EE
:1038600008BF10BDBDE81040FCF726BE80B540F291
:10387000FC4041F20041C2F20000C4F20101002309
:103880004FF00C0C4FF4E13280E80E00C0E9033336
:10389000C0E905C3C361FFF7C1F9002808BF80BDB7
:1038A000BDE88040FCF708BEFEE70000FEE7000030
:1038B0007047000070470000FDF73CBE70B592B045
:1038C00006AC20463021FCF76BFD002543F6400096
:1038D0000595CDE90355CDE901550095C4F20200E7
:1038E0000168022641F080510160006800F08050BC
:1038F0000090009847F200000095C4F200000168B3
:1039000041F480410160006800F48040009000981C
:10391000092006904FF48030079001200B904FF45F
:1039200080000D9006200E90A820CDE90F060420FF
:10393000119020460C96FDF7C3FF20B1EFF31080E5
:1039400072B600BFFEE70F20CDE901064FF4A0508C
:1039500004904FF48050059001A805210395FDF7D0
:10396000A3FE20B1EFF3108072B600BFFEE712B0E5
:1039700070BD00004EF68850CEF20000016841F4A0
:10398000700101607047000040F27C20C2F200002C
:10399000FEF778BC40F29C30C2F20000FEF772BC29
:1039A00040F2E430C2F20000FEF76CBC10B540F605
:1039B000FF3E0368C4F2000E40F2004C7045C4F2B2
:1039C000010C0FDCB0F1804F19D040F20042C4F27C
:1039D0000002904213D040F60002C4F2000290426E
:1039E0000DD010E040F60042C4F20002904206D032
:1039F000604504D00022C4F20102904203D14A681B
:103A000023F07003134341F6FF72C4F200029042A8
:103A10000DDC70451FDCB0F1804F41D040F2004218
:103A2000C4F2000290423BD040F6000221E043F68F
:103A3000FF72C4F20102904220DC42F20002C4F2A2
:103A4000000290422CD00022C4F20102904227D002
:103A5000604525D028E040F60042C4F200029042C2
:103A60001ED041F60002C4F20002904218D041F686
:103A70000042C4F20002904212D015E044F200026B
:103A8000C4F2010290420BD044F60002C4F20102DB
:103A9000904205D044F20042C4F20102904203D1A8
:103AA000CA6823F44073134323F080024B69D1F8B2
:103AB00000E08C681A430260C46240F48062C0F87F
:103AC00028E0624504BF096901630121416110BD1D
:103AD000806B0021C185C184FEF71EBF806B016829
:103AE000496990F83D20212A11D111F080010ED0B2
:103AF0000021C184016851E8031F026821F0C00160
:103B000042E80313002BF5D1202180F83D10016815
:103B1000496990F83E20222A2BD111F0400128D08B
:103B20000021C185016851E8031F026821F49071EA
:103B300042E80313002BF5D1016851E8051F026824
:103B400021F0010142E80513002BF5D1016B012999
:103B50000AD100BF016851E8031F026821F010017B
:103B600042E80313002BF5D1202180F83E100021FC
:103B70000163016C41F010010164FEF7CDBE00004D
:103B80000168806B0968C90530D40021C18500BF78
:103B9000016851E8031F026821F4807142E80313B1
:103BA000002BF5D1016851E8051F026821F00101E1
:103BB00042E80513002BF5D1016851E8051F0268A2
:103BC00021F0400142E80513002BF5D1202180F8B7
:103BD0003E10016B012909D1016851E8031F0268F9
:103BE00021F0100142E80313002BF5D1016B0129EC
:103BF00018BFFFF747B9818DFEF78CBE806B016B54
:103C0000012918BFFFF760B9818D4908FEF782BE10
:103C100081B090F83E1022291DD18268B2F5805FF4
:103C200002D10169002946D0816AB2F5805F07D0D0
:103C30000AB9026922B10268526802F07F0201E00B
:103C4000026852680A70816A01318162C18D01394E
:103C50000A04C18501D001B070470168CA6822F02A
:103C60002002CA60CA6822F48072CA604A6922F0DF
:103C700001024A61202180F83E10016B012923D105
:103C800000210163016851E8031F026821F010015F
:103C900042E80313002BF5D101680A68D20606D565
:103CA000002200920A680092496800910099818D73
:103CB00001B0FEF72FBE0168826A49686FF35F2189
:103CC00022F8021B8262C1E701B0FFF7DBB80000F7
:103CD00010B504460068D4E902C22369016921F4E1
:103CE000405111430161626943EA0C01E3691143E8
:103CF000C268194349F20C639A431143C160416998
:103D0000A26921F4407141F20043114340F4806202
:103D1000C4F201039A42416102D1FDF789FD01E03D
:103D2000FDF772FDE16963681922B1F5004FA0FB50
:103D3000020121D15A00DB0FFCF798FA48F21F511B
:103D4000C5F2EB11A0FB01235A094FF69C73C0F694
:103D5000FF7303F1805302FB0300322303EBC00027
:103D6000A0FB01014FF4F87000EA111000EB021003
:103D7000C1F3421108441DE09A009B0FFCF776FA4C
:103D800048F21F51C5F2EB11A0FB01235A094FF66F
:103D90009C73C0F6FF7302FB0300322303EB001099
:103DA000A0FB0101F02000EA511000EB0210C1F36A
:103DB000431108442168886010BD000070B582B0CE
:103DC000134600260446816283850664222084F817
:103DD0003E000A462168A06B43F6813C43F6FD3E57
:103DE00043F6DD25C0F6000CC0F6000EC0F6000557
:103DF0000431C0E90FCEC0E91356FDF76BFA019606
:103E0000206801680191406801900198206984F858
:103E10003C6048B1206850E8030F216840F480708E
:103E200041E80302002AF5D1206850E8050F216817
:103E300040F0010041E80502002AF5D1206850E871
:103E4000050F216840F0400041E80502002AF5D145
:103E5000002002B070BD000040F2B840C2F2000085
:103E6000FEF75CBDFEE700002DE9F0412DED0A8B69
:103E7000A2B09FED6A8A002711AC4FF00008C4F28F
:103E8000601701262046B0EE480AF0EE480AB0EE70
:103E9000481AF0EE481AB0EE482A8DF8878020972D
:103EA0008DF87F6000F066FB9FED5DAA9FED5D9A47
:103EB00003ADB7EE00BA9FED5C2A2846B0EE4A0A81
:103EC000F0EE4B0AB0EE4B1AF0EE491A00F052FB3E
:103ED00040F27C60C2F200000DF1870120AA0DF1D2
:103EE0007F030094019500F0CBFB2046B0EE480A1A
:103EF000F0EE4B0AB0EE481AF0EE481AB0EE482A3F
:103F00008DF8878020978DF87F6000F033FBB2EE4C
:103F100004CA2846B0EE4A0AF0EE4B0AB0EE4C1A3C
:103F2000F0EE491AB0EE492A00F024FB40F2187076
:103F3000C2F200000DF1870120AA0DF17F03009469
:103F4000019500F09DFB2046B0EE480AF0EE4B0ACA
:103F5000B0EE481AF0EE481AB0EE482A8DF8878085
:103F600020978DF87F6000F005FB2846B0EE4A0AE6
:103F7000F0EE4B0AB0EE4C1AF0EE491AB0EE492AB8
:103F800000F0F8FA40F24450C2F200000DF187014F
:103F900020AA0DF17F030094019500F071FB2046EB
:103FA000B0EE480AF0EE4B0AB0EE481AF0EE481AAE
:103FB000B0EE482A8DF8878020978DF87F6000F05A
:103FC000D9FA2846B0EE4A0AF0EE4B0AB0EE4C1A87
:103FD000F0EE491AB0EE492A00F0CCFA40F2E05077
:103FE000C2F200000DF1870120AA0DF17F030094B9
:103FF000019500F045FB40F2C80040F2040140F298
:10400000B472C2F20000C2F20001C2F2000200F07B
:1040100027F922B0BDEC0A8BBDE8F081000000005A
:104020000000204200007A440000964480B582B02F
:1040300040F2E070C2F2000000F0B4FB40F2040075
:10404000C2F2000090E80E1040F29C00C2F20000A4
:10405000CDF800C000F02AFA02B080BD9FED121A20
:1040600030EE600AB4EE410AF1EE10FA09DD9FED80
:104070000F2A00BF30EE020AB4EE410AF1EE10FA48
:10408000F8DC9FED0B1AB4EE410AF1EE10FAC8BF4E
:1040900070479FED082A00BF30EE020AB4EE410AD5
:1040A000F1EE10FAF8DD7047000034430000B4C3AD
:1040B000000034C30000B443B4EE600AF1EE10FA1D
:1040C000B4EE410AB8BFB0EE600AF1EE10FAC8BF14
:1040D000B0EE410A7047000000EE100A9FED051A8D
:1040E000B8EEC00A9FED042A20EE010A80EE020A13
:1040F000704700BF0000B44300F8FF4500EE100A0F
:10410000B8EEC00AB1EE081A20EE010A70470000AE
:104110002DE9F04381B01268A2F201270A2F4ED890
:1041200040F26817C2F20007B94208D040F2901777
:10413000C2F20007B94207D000245CB93FE0D1B217
:1041400000EB8100043803E0D1B200EB810028309D
:104150000468A4B398881F885E8893F8068090FA54
:10416000B0F9204600F014FA0546F8BAFFF7B4FF9C
:10417000D5ED020A85ED010AFFF770FF94ED011AF3
:10418000686880EE010A95ED001AA860F0BA31EE79
:10419000000A85ED000AFFF7B1FF94ED011A02EE67
:1041A000108A80EE010A01EE109AB8EEC11AB8EE3C
:1041B000422A85ED041A85ED052A85ED030A01B032
:1041C000BDE8F0832DE9F0418AB040F268138846DB
:1041D000C2F2000300219845CDE9001118BF2C3030
:1041E0000823022ACDE90511079307D0012A0AD036
:1041F0006AB94FF400710391002108E040F2FF21F9
:104200000391082103E040F2FF110391042100EB28
:10421000810500266F46002411E000BF00F0B4F9CC
:10422000010A55F81600B95500F0AEF931460236CC
:1042300041F00101082E04F10104785407D055F82B
:1042400016000028EAD100206100B855EFE703A965
:104250006A4609AB4046FCF7A9FA0AB0BDE8F0810E
:1042600070B50E462C2115460446FCF799F804F16A
:104270002C002C21FCF794F8D6E900CED6E90223D5
:10428000D6E90410C4E90223C4E90410C4E900CE4D
:10429000B36A183647CEA36204F1180347C3D5E9C1
:1042A00000C1D5E90223D5E90406C4E90D23C4E918
:1042B0000F06C4E90BC1AB6AD5E90610D5E908269B
:1042C000636504F1480345C32046616470BD000086
:1042D0002DE9F04385B08046C06908F120030DF157
:1042E000040C00270DF1040902240DF103050ECB87
:1042F0008CE80F0059F82760304600F04BF9304643
:1043000029468DF8034000F0B3F90137042FF1D1AD
:10431000404600F057FA05B0BDE8F08370B584B0B0
:104320000446C06904F1200300256E460ECB8DE8DB
:104330000F0000BF56F8250000F02CF90135042DC0
:10434000F8D1204604B0BDE8704000F03FBA00004C
:10435000B0B52DED068B82B0017C0446C069002902
:1043600000F0868094ED050A9FED4E8A94ED061AC2
:1043700080EE080A81EE081A94ED012A94ED023AC3
:104380009FED479A94ED034A23EE093A22EE092A5B
:1043900032EE032A01A920EE040A30EE020A80EE72
:1043A000010A8DED010A00F067F994ED050A94ED1C
:1043B000061A80EE080A81EE081A94ED012A94ED9F
:1043C000023A9FED39AA94ED034A23EE093A22EE10
:1043D0000A2A32EE032A206A01A920EE040A30EEEE
:1043E000020A80EE010A8DED010A00F045F994ED14
:1043F000050A94ED061A80EE080A81EE081A94ED7B
:10440000012A94ED023A94ED034A23EE0A3A22EE91
:104410000A2A32EE032A606A01A920EE040A30EE6D
:10442000020A80EE010A8DED010A00F025F994EDF3
:10443000050A94ED061A80EE080A81EE081A94ED3A
:10444000012A94ED023A94ED034A23EE0A3A22EE51
:10445000092A32EE032AA06A01A920EE040A30EEEE
:10446000020A80EE010A8DED010A00F005F913E061
:10447000002501A9019500F0FFF8206A01A9019526
:1044800000F0FAF8606A01A9019500F0F5F8A06A59
:1044900001A9019500F0F0F802B0BDEC068BB0BDAB
:1044A0008104353F0000C842810435BF10B50124A6
:1044B000047444F67014C0F600044FF0000E083483
:1044C000C0E9004EC0E902EE002440F2000EC4F242
:1044D000C814C4F2A00EC0E9054E00F11C0EDDF8B0
:1044E00008C08EE80E1010BD10B5044694ED092AE0
:1044F00094ED031A80ED050A006A30EE600AC4EDFF
:10450000060A84ED080A30EE020AF1EE410AA062C2
:10451000FFF7D2FD94ED014A84ED090A94ED082AD3
:1045200094ED003A20EE040A94ED0A4A94ED025A02
:1045300094ED041A22EE033A32EE442A22EE052AC2
:1045400084ED0C0A33EE000A30EE020AF1EE410A65
:1045500084ED0B3A84ED0D2AFFF7AEFD84ED070ADA
:1045600010BD00000021C0E90511C0E908118162F9
:104570007047000010B50446A0EC050A2421FBF7A3
:104580000FFF204610BD0000B0F90A007047000080
:1045900014307047B0B5044601202072002504F1A4
:1045A0002C006581FFF7DEFF04F16400FFF7DAFFFE
:1045B000C4E90355C4E90555C4E90755C4E90955DB
:1045C000B0BD0000B0B52DED028B0446007A40B3BB
:1045D00001281DD0022836D1607A012836D090BB40
:1045E00094ED038A94ED050AF0EE480A04F12C05D7
:1045F000FFF734FD78EE000A2846B0EE480AFFF7D0
:1046000073FFF0EE400A84ED080A94ED040A21E0FD
:104610000020D4ED080A9FED150A206104F1640022
:104620001AE0002024F80A0F012004F8020C04F11B
:104630002200FFF797FF04F15A00FFF793FF20468F
:104640002221FBF78BFEBDEC028BB0BD94ED040A7A
:10465000D4ED080A04F16400FFF746FFBDEEC00A7E
:1046600010EE100A6081BDEC028BB0BD00000000AE
:104670000978017270470000096801617047000005
:10468000F0B581B00978044601701068079E60603B
:104690001878069D607204F10A002221FBF75EFE85
:1046A000D5E90223D5E90401D5E900CEC4E90E30ED
:1046B00020462164C4E90CE240F82CCFD5E906CEAF
:1046C000D5E90831D5E90A72C4E91331C4E9157294
:1046D000C4E911CED5E90C21C4E91721D6E90415A6
:1046E000D6E900C2D6E90237C4E91D1504F1680114
:1046F00025468CC145F864CFD6E906CED6E9083701
:10470000D6E90A21C4E92137C4E92321C4E91FCE2F
:10471000D6E90C210026C4E92521012121726681F8
:10472000FFF720FF2846FFF71DFF2672C4E9036646
:10473000C4E90566C4E9076666622046A66201B060
:10474000F0BD000001460020C1F81600C1F81200BB
:1047500040F2B84040F20333C2F2000012224B8311
:10476000FEF774BB01784278837862F30A2190F8EF
:1047700003C04182D10863F34A1181824FEA8C0160
:10478000027941EA931162F38A21C1824179520888
:1047900061F3CA120283C1F3011289098276C176DC
:1047A0007047000000210182C160816041600160AA
:1047B000C0F81610C0F8121041837047043080EC26
:1047C000030A704701210174704700000021017441
:1047D0007047000000EB4100408A9FED061A00EE92
:1047E000100AB8EE400A9FED042A30EE010A80EE6E
:1047F000020A7047000080C4000025440844807EFF
:104800007047000070B58AB040F2E070C2F200005C
:10481000FFF798FF40F29C00C2F20000FFF758FD3E
:1048200040F2681401200021C2F200046D46089095
:10483000CDE90610CDE90011CDE9021104910E2653
:104840000591204629460996FCF704F82046FCF716
:104850004DFB20460221FBF795FF40F29014C2F277
:104860000004204629460596FBF7F4FF2046FCF796
:104870003DFB20460221FBF785FF40F2E430C2F207
:104880000000FDF7DBFB0AB070BD0000FCF760FE26
:10489000FFF714F8FEF7BEFBFEF7A0FBFEF7E6FFFE
:1048A000FEF718FBFEF752FBFEF774FBFEF7B4FCB5
:1048B000FEF7DCFCFEF784FDFEF7E8FDFEF74CFE9C
:1048C000FEF7BAFEFEF7E2FEFEF70AFFFEF78AFFEA
:1048D000FEF7A8FFFFF796FFFEE70000B0B540F235
:1048E00004050024C2F200052859002818BFFFF76C
:1048F00069FE04342C2CF7D140F2B4750024C2F2C6
:10490000000500BF2859002818BFFFF75BFE0434DC
:104910002C2CF7D140F2C80440F26815C2F2000412
:10492000C2F20005204629460022FFF74BFC204634
:1049300029460122BDE8B040FFF744BCF1EE100A61
:104940004FF6FF71C0F2C03120EA010040F0407024
:10495000E1EE100A704700000000000000000102B4
:104960000304060708090000000001020304000018
:104970000000000000000000D14200085143000880
:104980001D4300080006101600061016B84900085E
:104990000000002038000000C4010008F0490008B1
:1049A00038000020C8370000E001000881F6FFFF52
:1049B000B9F4FFFF000000000024F4007C06002092
:1049C00018070020E005002044050020000000003A
:1049D00000000000000000000000000000000000D7
:1049E00000000000000000000100000010000000B6
:040000050800018965
:00000001FF
