:020000040800F2
:10000000B83400202D020008AD310008A1270008F7
:10001000A931000849040008653700080000000005
:10002000000000000000000000000000B5310008E2
:100030005904000800000000B1310008B93100087F
:10004000470200084702000847020008470200086C
:10005000470200084702000847020008470200085C
:10006000470200084702000847020008470200084C
:100070004D04000847020008470200084702000834
:10008000470200084702000847020008470200082C
:10009000470200084702000847020008470200081C
:1000A000470200088932000847020008470200089A
:1000B00047020008470200084702000847020008FC
:1000C00047020008470200084702000847020008EC
:1000D0004702000847020008470200085937000895
:1000E00047020008470200084702000847020008CC
:1000F00047020008470200084702000847020008BC
:1001000047020008470200084702000847020008AB
:10011000470200084702000895320008A132000893
:10012000470200084702000847020008470200088B
:10013000470200084702000847020008470200087B
:10014000470200084702000847020008470200086B
:10015000470200084702000847020008470200085B
:10016000470200084702000847020008470200084B
:10017000470200084702000847020008000000008C
:10018000470200084702000800F002F800F03EF8BD
:100190000AA090E8000C82448344AAF10107DA45E2
:1001A00001D100F033F8AFF2090EBAE80F0013F0F6
:1001B000010F18BFFB1A43F001031847C8360000AF
:1001C000E8360000103A24BF78C878C1FAD8520740
:1001D00024BF30C830C144BF04680C6070470000C1
:1001E0000023002400250026103A28BF78C1FBD840
:1001F000520728BF30C148BF0B6070471FB503F0DE
:1002000024FB00F0D5F81FBD10B510BD00F0E2F8DA
:100210001146FFF7F3FF03F0EFFA00F000F903B423
:10022000FFF7F2FF03BC00F007F900000948804720
:1002300009480047FEE7FEE7FEE7FEE7FEE7FEE7C8
:10024000FEE7FEE7FEE7FEE704480549054A064BE0
:10025000704700007532000889010008B8040020CA
:10026000B8340020B8140020B814002053EA020C5F
:1002700000F069802DE9F04B4FF00006002B1FBF06
:10028000B3FA83F503FA05F424FA05F65E4012BFCB
:100290001643B2FA82F502FA05F4C5F120051EBF35
:1002A00022FA05FC44EA0C04203556EA044C4FEAD5
:1002B000144418BF641C4FF000084FF0000990422E
:1002C00071EB030C39D3002919BFB1FA81F701FA98
:1002D00007F6B0FA80F700FA07F6C7F120071EBF4D
:1002E00020FA07FC46EA0C062037B6FBF4FCA7EB25
:1002F0000507103F07F01F0BCBF120062CFA06F67E
:100300000CFA0BFB44BFB3460026202FA4BF5E4669
:100310004FF0000B5BEA060C08BF4FF0010B19EB26
:100320000B0948EB0608ABFB027C06FB02CC0BFB7F
:1003300003CCC01B71EB0C01C1E70B4602464146E2
:100340004846BDE8F08B13B5084318BF4FF0FF30A7
:100350000146AFF30080BDE81C4070474FF000023B
:1003600000B5134694469646203922BFA0E80C50AB
:10037000A0E80C50B1F12001BFF4F7AF090728BF86
:10038000A0E80C5048BF0CC05DF804EB890028BF02
:1003900040F8042B08BF704748BF20F8022B11F02B
:1003A000804F18BF00F8012B7047704770477047A7
:1003B00070B5064C7C44064D7D4404E0204601683F
:1003C00008448047241DAC42F8D170BDEC340000D5
:1003D000EC340000754600F02BF8AE460500694687
:1003E000534620F00700854618B020B5FFF72CFFD4
:1003F000BDE820404FF000064FF000074FF0000826
:100400004FF0000BAC46ACE8C009ACE8C009ACE862
:10041000C009ACE8C00921F007018D46704710B54E
:100420000446AFF300802046BDE81040FFF7F7BE5A
:10043000004870471000002001491820ABBEFEE7BD
:100440002600020070470000FEE7000040F20C109A
:10045000C2F2000000F0B8BA70470000EFF310805D
:1004600072B600BFFEE70000B0B581B00022009276
:1004700090F83C20012A01D1022176E0D1F800E079
:1004800001221FFA8EFC80F83C204FEA4C0212FA3F
:100490008EF30268BEF10A0F32BF10321E3B0C32DF
:1004A000072415689C4025EA040414608C681568CC
:1004B00004FA03F32B4313604A68062A07D802EBB9
:1004C00082014A1F01681F2351F8344F0CE0016874
:1004D0000C2A02EB820203D851F8304F233A02E093
:1004E00051F82C4F413A1F23934024EA03030B6039
:1004F0000D680CFA02F22A4342F204330A60C4F295
:1005000001030168A3F54172914208BFBEF1120FC9
:1005100002D0914206D025E01D6845F480051D609B
:1005200091421FD12EF0010110291BD11968BEF193
:10053000100F41F40001196014D140F20001C2F221
:10054000000109684DF68362C4F21B32A1FB02125E
:10055000910C01EB810149000091009911B10099C2
:100560000139F9E7002180F83C10084601B0B0BD20
:10057000002804BF0120704710B50446006C30B954
:10058000204600F09BF80020606484F83C00206C5A
:10059000C0063AD4206C41F202118843023042F284
:1005A00004312064C4F20101086820F4403008607E
:1005B0000A6894E809101A43D4F810E00A60416808
:1005C000012321F4807141604168C0F6007341EA63
:1005D0000E214160416821F040714160416841EA6B
:1005E0000C014160816821F400618160E1688268EA
:1005F00011438160A16A8268994222F07062826030
:10060000826804D122F040510AE0012052E01143F7
:100610008160816821F040518160E16A8268114304
:100620008160816821F0020181608168227E94F8F6
:10063000203041EA42018160416883B141F40061A8
:10064000416041684EF2000221F460414160616AFC
:10065000CFF6FF72436802EB4131194301E021F408
:1006600000614160C16A40F2000C21F47001C16276
:10067000E2696169CFF6F07CC36A0CEB02521A435F
:10068000C262826822F40072826094F8302083682B
:1006900043EA42228260826822F480628260826839
:1006A00042EA8121816000206064216C012262F3B2
:1006B00001012164002184F83C1010BD80B586B092
:1006C00042F200210068C4F2010100228842059232
:1006D000CDE903220292019201D006B080BD43F61B
:1006E00030000092C4F20200436943F48063436126
:1006F000436903F480630093009B0092036843F016
:1007000020030360006800F02000009000984FF480
:10071000806001900320CDE9020201F5724001A939
:1007200000F006FB06B080BDB0B5C8B1044690F835
:10073000200010B9204600F071F82068016841F0EF
:100740000101016000F0CAFB054600BF2068416856
:10075000C90707D100F0C2FB401B0B28F6D312E0FB
:100760000120B0BD016821F00201016000F0B6FB7C
:10077000054600BF2068416889070DD500F0AEFB33
:10078000401B0B28F6D3606A052140F400306062FC
:10079000012084F82010B0BD217E0268012922F0DA
:1007A000800208BF80320260617E0268012922F067
:1007B000400208BF40320260A17E0268012922F097
:1007C000200208BF20320260E17E0268012922F087
:1007D000100218BF10320260217F0268012922F046
:1007E000080208BF08320260617F0268012922F016
:1007F000040208BF04320260D4E901C2D4E903351F
:1008000061691A432A431143ACF101021143C161EA
:1008100000200121606284F82010B0BD80B586B050
:10082000006846F60002C4F2000200219042CDE9C1
:100830000411CDE90211019132D046F20041C4F217
:10084000000188426CD140F27001C2F200010A68D6
:1008500043F64000C4F20200531C0B6052B9002161
:100860000091016841F000710160016801F00071C0
:10087000009100990021009150F8101C41F00801EE
:1008800040F8101C50F8100C032100F008000090F4
:10089000009840F20040C4F2020000F5006033E02E
:1008A00043F64000C4F202000091016841F080610B
:1008B0000160016801F080610091009940F27001CF
:1008C000C2F200010A68531C0B6052B9002100916A
:1008D000016841F000710160016801F00071009150
:1008E00000990021009150F8101C41F0020140F8DD
:1008F000101C50F8100C602100F0020000900098CD
:1009000040F20040C4F20200019102210291002154
:100910000391032104910921059101A900F008FA2E
:1009200006B080BD70B5866D044600F0D7FA94F825
:100930003510022925D105462068216C026822F075
:1009400016020260426922F08002426109B9A16C7C
:1009500019B1016821F008010160016821F001016D
:10096000016000BF20680068C0070ED000F0B6FA32
:10097000401B0628F6D320206065032084F835004C
:100980000CE080206065012008E0E06D3F2101FA65
:1009900000F0B060012084F835000020002184F8C8
:1009A000341070BD90F83510022909D1052180F866
:1009B00035100068016821F00101016000207047D6
:1009C0008021416501207047F0B581B004460020C8
:1009D000009040F20000C2F200000268D4E9166004
:1009E00048F2B51337680821C1F64E3381403942C9
:1009F000A2FB03250CD0226813685B0708D5136897
:100A000023F004031360B160616D41F00101616581
:100A100001218140394208D022685269120604D56A
:100A2000B160616D41F0020161650421814039428C
:100A300008D022681268920704D5B160616D41F058
:100A40000401616510218140394215D02068026897
:100A5000120711D5B16002680168520306D4C905B6
:100A600006D4016821F00801016001E008033ED4CA
:100A7000216C09B120468847E16D202000FA01F27F
:100A80003A4240D020680368DB063CD5B26094F857
:100A900035300268052B1AD122F016020260426935
:100AA00022F080024261226C0AB9A26C1AB102687B
:100AB00022F0080202603F208840B060012084F8E4
:100AC0003500216D002084F83400D9BB3FE0016877
:100AD000520310D4C90512D4016821F0100101603D
:100AE000012084F83500002084F8340007E0A16C70
:100AF0000029BFD1C0E7080301D4616C00E0E16BBD
:100B000009B120468847606D08B3606DC00717D0F3
:100B1000052084F835002068A90A026822F0010245
:100B2000026000BF009A01328A42009202D8026835
:100B3000D207F7D1012084F83500002084F8340072
:100B4000E16C21B1204601B0BDE8F040084701B09A
:100B5000F0BD00002DE9F041044600F0BFF9C4B13A
:100B60000546022084F835000020216884F834000E
:100B7000086820F00100086020680168C9070BD0F0
:100B800000F0ACF9401B0528F6D9032120220320F0
:100B90007AE00120BDE8F081016848F23F02CFF21F
:100BA0001002D4E9013501EA020ED4E9032143EA37
:100BB0000E032B43D4E9056C1A43D4E9077811439B
:100BC000314341EA0702616A42EA0802042942EA23
:100BD0000C0303D1D4E90B273A4313430360426962
:100BE000042922F0070241EA02012DD1D4E90A5377
:100BF00041EA050143B3BCF5005F08D0BCF1000F2A
:100C000012D1022D16D0012D07D09DB119E0032D70
:100C100017D8DFE805F00B0F0B02A3F1C072B2FA90
:100C200082F252094AB90FE0032D02D2012222B901
:100C30000AE006D1C3F3006232B101214022012053
:100C400022E00022002AF8D100F0F8024AF6AB2395
:100C5000103ACAF6AA23A2FB033743F67C0341618C
:100C60003909C0F60003595C40F2FF3398435F2A0C
:100C70004FF03F0288BF0430C4E9160102FA01F1C7
:100C80008160002201210020626584F83510BDE8F2
:100C9000F081000070B590F834C0BCF1010F45D070
:100CA0004FF0010C80F834C0D0F858E090F835C00F
:100CB000BCF1010F37D14FF0020C80F835C04FF076
:100CC000000CC0F854C0D0F800C08468056CC06D3A
:100CD000DCF80060402C26F48026CCF80060CCF8CC
:100CE00004300B4604BF13460A463F2101FA00F0C8
:100CF000CCF80830CCF80C20CEF80800DCF8000066
:100D000040F01600CCF800002DB1DCF8000040F0F7
:100D10000800CCF80000DCF8000040F00100CCF83E
:100D20000000002070BD002180F83410022070BD4A
:100D30002DE9F04F82B000F13E4241F6004502F14C
:100D4000FF77C4F2020508224FEAB726A84208BF7F
:100D50000722072E38BF4FEAB7224FF0010A0024BE
:100D600000274FF00009009209E000BF09F10109D6
:100D70000237B9F1100F04F1040400F0A6800A68EC
:100D80000AFA09FC12EA0C08F0D0D1F804B00BF012
:100D9000030AAAF10102012A12D882680323CE684D
:100DA00003FA07FE22EA0E02BE4032438260426826
:100DB000CBF3001622EA0C0206FA09F6324342602F
:100DC000BAF1030F1DD0C26803238D6803FA07F63A
:100DD000B24305FA07F63243BAF1020FC26010D1EE
:100DE0006FF0030202EA59020244D2F820C004F074
:100DF0001C050F230E69AB402CEA0303AE403343BE
:100E00001362026803234E68BB409A4306F0030353
:100E1000BB401A4316F4403F4FF0010A0260A5D0D0
:100E2000002243F644030192C4F202031A6843F617
:100E3000004E42F480421A601A68C4F2010E02F4B5
:100E400080420192019A29F003024FF6084C724445
:100E5000CFF6FF7C52F80C3004F00C060F25B5409D
:100E6000AB43009D05FA06F6334342F80C30DEF83A
:100E700008204B6842EA080643F60C4CDD0258BFD6
:100E800022EA0806CEF80860C4F2010CDCF8002063
:100E90009D0242EA080658BF22EA0806CCF8006024
:100EA000DEF804209D0342EA080658BF22EA08063D
:100EB000CEF80460DEF80020DB0342EA080658BFE3
:100EC00022EA0806CEF8006050E702B0BDE8F08FD5
:100ED000002A08BF090481617047000040F2B04059
:100EE000C2F2000000687047B0B538B3044600682D
:100EF000D4E901124CF6CC43036045F2555303602C
:100F000041608260FFF7EAFF2168CA68920710D04B
:100F1000054603E02168C86880070AD0FFF7DEFFB6
:100F2000401B3228F6D32068C0688007F2D0032027
:100F3000B0BD4AF6AA2008600020B0BD0120B0BDB7
:100F400001684AF6AA2200200A60704740F20400B5
:100F500040F2B041C2F20000C2F2000100780A681B
:100F6000104408607047000080B543F60040C4F2AA
:100F70000200016841F400710160016841F4806180
:100F80000160016841F480710160032000F088F87D
:100F9000002000F005F800F02BF8002080BD0000D4
:100FA000B0B540F20402C2F2000240F20001127831
:100FB000C2F200014FF47A730968B3FBF2F20446FF
:100FC000B1FBF2F1084600F0D9FB0F2C4FF0010500
:100FD0000CD858B94FF0FF3021460022002500F010
:100FE00033F840F20800C2F2000004602846B0BDA9
:100FF00082B0002043F640010190C4F202014A6829
:1010000042F480424A604A6802F480420192019AA6
:101010000090086840F080500860086800F0805038
:101020000090009802B07047002848BF704700F059
:101030001F01012202FA01F14EF200124009CEF224
:10104000000242F82010704710B54EF60C5CCEF24C
:10105000000CDCF80030C3F3022E8EF00704042CE1
:1010600028BF0424BEF103034FF0FF3E0EFA04F440
:1010700038BF0023A14399400EFA03F39A4311436A
:1010800000F1604200F00F03090102F56442043BE5
:101090006344002848BF03F10C02117010BD00002A
:1010A0004EF60C51CEF200010A684FF6FF031A40CB
:1010B00060F30A2242F0806040F0FD7008607047E3
:1010C0002DE9F041002800F08B8043F60808C4F2B7
:1010D00002080446D8F8F8030D4600F007008842DD
:1010E00007D288F8F853D8F8F80300F00700A842B0
:1010F00076D12068810717D5410705D5D8F80010AB
:1011000041F4E051C8F80010010705D5D8F80010E7
:1011100041F46041C8F80010D8F80010A26821F02E
:10112000F0011143C8F80010C0073FD1D8F8F80308
:1011300000F00700A84207D988F8F853D8F8F80358
:1011400000F00700A8424BD12068410707D5D8F826
:101150000010E26821F4E0511143C8F800100007C4
:1011600008D5D8F80000216920F4604040EAC100A9
:10117000C8F8000000F07CF8D8F8001043F66402CC
:10118000C1F30311C0F60002515C40F2000220FAE4
:1011900001F140F20800C2F200000068C2F2000251
:1011A0001160FFF7FDFE0020BDE8F0816068811E40
:1011B000022907D258F8081C89015CBF0120BDE84C
:1011C000F08110E0012807D158F8081C89035CBFA2
:1011D0000120BDE8F08106E058F8081C890702D418
:1011E0000120BDE8F081D8F8001021F00301084388
:1011F000C8F80000FFF772FE064641F2883700BFCC
:10120000D8F80000616800F00C00B0EB810F8DD0C1
:10121000FFF764FE801BB842F2D90320BDE8F081DD
:1012200040F2000043F60801C2F20000C4F20201DD
:101230000068096843F67402C1F38221C0F6000217
:10124000515CC8407047000040F2000043F60801BE
:10125000C2F20000C4F202010068096843F6740299
:10126000C1F34231C0F60002515CC8407047000033
:1012700010B543F60404C4F20204606800F00C00E8
:1012800008280AD0042819BF42F20040C0F2F40036
:1012900041F60030C0F2B70010BD20682168236815
:1012A000490241F60031C0F2B70100F03F02C3F33A
:1012B00088105CBF42F20041C0F2F401A1FB0001C2
:1012C0000023FEF7D3FF21680222C1F3014102EBA4
:1012D0004101B0FBF1F010BD2DE9F04182B00028D2
:1012E00000F0A1800446007843F60006C007C4F26F
:1012F000020643D0B06800F00C00042805D1306825
:1013000080033BD56068C8BB8DE0B06800F00C007E
:10131000082802D170684002F1D46568B5F5A02FA5
:101320000AD0B5F5803F0BD0306820F480303060B3
:10133000306820F4802006E0306840F4802030607F
:10134000306840F480303060FFF7C8FD002D05465E
:1013500011D000BF3068800310D4FFF7BFFD401BE1
:101360006428F7D920E100BFFFF7B8FD401B6428CF
:101370004FF0030054D830688003F5D420788007FC
:101380001AD5B06810F00C0F09D0B06800F00C004E
:10139000082840F088807068400200F1848030683E
:1013A000800702D5E06801283DD13068216920F02E
:1013B000F80040EAC10030602078000737D4207878
:1013C00040074AD4A56955B3B06800F00C0008285E
:1013D00040F09C80012D26D07068E16900F4800205
:1013E0008A4220D1216A00F03F028A421BD147F68F
:1013F000C071626A0140B1EB821F14D1A16A4FF63D
:10140000FF73C903994300F44032A1F580318A4249
:1014100009D1E16A00F07060B0EB016F03D10020E8
:1014200002B0BDE8F081012002B0BDE8F081606942
:10143000002840F20000C4F2472056D00121C0F835
:10144000801EFFF74BFD0546706F8007B7D4FFF78E
:1014500045FD401B0228F7D9A6E0306C10F08058FB
:101460000AD100200190306C40F080503064306C24
:1014700000F080500190019847F20007C4F2000785
:101480003868C00524D4386840F480703860FFF7AD
:1014900025FD05463868C0051AD4FFF71FFD401B1F
:1014A0000228F7D980E0E068002851D00020C4F27B
:1014B000472001210160FFF711FD054630688007D4
:1014C0003FF573AFFFF70AFD401B0228F6D96BE02A
:1014D000A568052D50D0012D52D0306F20F00100AD
:1014E0003067306F20F004004DE00021C0F8801E0E
:1014F000FFF7F4FC054600BF706F80077FF55FAF14
:10150000FFF7ECFC401B0228F6D94DE00027C4F29F
:10151000472700203866FFF7E1FC022D05460BD176
:101520003068800158D5FFF7D9FC401B02284FF0E6
:101530000300F5D974E700BF306880017FF56FAF15
:10154000FFF7CCFC401B02284FF00300F4D967E7FB
:101550000020C4F2472000210160FFF7BFFC0546D0
:10156000306880077FF528AFFFF7B8FC401B0228E2
:101570004FF00300F4D953E7306F40F004003067B8
:10158000306F40F001003067FFF7A8FC002D0546E2
:1015900041F2883714D000BF306F800713D4FFF7B3
:1015A0009DFC401BB842F7D9032002B0BDE8F08192
:1015B000FFF794FC401BB8424FF003003FF630AFFA
:1015C000306F8007F4D4B8F1000F7FF4FBAE306CBD
:1015D00020F080503064F5E604F11C052FCD08435F
:1015E00040EA8210D9034FF6FF729143A1F5803192
:1015F00040EA05600843706001203866FFF76EFC22
:10160000044600BF306880013FF509AFFFF766FC74
:10161000001B02284FF00300F4D901E770B538B180
:101620000446406A30B10020206104F1140007E054
:10163000012070BD6068B0F5827F03D004F11C000A
:10164000002101600026A66294F8510020B92046CE
:1016500084F8506000F03CF8022084F8510094E8CF
:101660000F0001F48271056802F4044225F0400580
:101670000560114403F400622369114403F002027F
:101680006369114403F00102A369E569114403F49D
:101690000072114405F03802256A114405F08002F9
:1016A000A56A114305F4005211430160626A0421E6
:1016B00001EA134102F0100211444160C16921F4B2
:1016C0000061C1610120666584F85100304670BD3B
:1016D0002DE9F04387B043F200050068C4F201052C
:1016E0000026A8420696CDE904660396029602D02B
:1016F00007B0BDE8F08343F630000196C4F2020063
:10170000416902AC41F48051416141694FF00208E6
:1017100001F4805101910199019601684FF003098C
:1017200041F0020101600168052701F00201019109
:1017300001990196016841F00101016000682146AC
:1017400000F00100019001981820029005F5544026
:10175000CDE90386CDF814900697FFF7E9FA8020CB
:10176000CDE9020805F550402146CDE90469069708
:10177000FFF7DEFA07B0BDE8F0830000411E00204D
:10178000B0EB116F1CBF012070474EF21002CEF279
:10179000000251604EF62351CEF20001F0230B708F
:1017A000072190601160704770470000704700008B
:1017B000B0B590F83C20012A04BF0220B0BD01F171
:1017C00008053CCDD1E900CE23F47C5322F47052BD
:1017D0001A432EF4F0431A432CF4E0431A4324F442
:1017E000C0431A432A43C96922F480420368114363
:1017F0005964002180F83C100846B0BD10B590F83F
:101800003C20012A4FF0020252D0012380F83C30E4
:1018100080F83D200268D2F804E0D2F808C00C68D5
:101820002EF07003234341F2FF74C4F20004A2427D
:1018300053600DDC40F2FF73C4F200039A4215DCE2
:10184000B2F1804F29D040F20043C4F2000322E0FD
:1018500040F2FF33C4F201039A4212DC41F6000366
:10186000C4F200039A4218D0002312E040F60003AD
:10187000C4F200039A4210D040F60043C4F20003C1
:1018800009E044F20003C4F201039A4205D040F299
:101890000043C4F201039A4204D149682CF080034A
:1018A000194391600121002280F83D1080F83C200E
:1018B000104610BD002804BF0120704710B5044633
:1018C00090F83D0028B9002084F83C00204600F044
:1018D0001FF8022084F83D002068211D01F0E6FC7D
:1018E000012084F8460084F83E0084F83F0084F824
:1018F000400084F8410084F8420084F8430084F8F2
:10190000440084F8450084F83D00002010BD00002C
:1019100080B582B0006840F6FF71C4F200018842D1
:101920001FDC40F20041C4F20001884240D040F682
:101930000001C4F2000188424BD040F60041C4F2DD
:101940000001884243D10020019043F64000C4F2D8
:101950000200016841F008010160006800F0080021
:1019600044E041F20001C4F20001884242D041F259
:101970000041C4F20001884252D00021C4F20101AA
:10198000884224D10020019043F64000C4F20200B6
:101990004168002241F0010141604068002100F0EF
:1019A0000100019001981920FFF74EFB19204CE02F
:1019B0000020019043F64000C4F20200016841F0AB
:1019C00002010160006800F002000190019802B07D
:1019D00080BD0020019043F64000C4F2020001687F
:1019E00041F004010160006800F0040001900198DA
:1019F00002B080BD0020019043F64000C4F2020016
:101A00000168002241F0100101600068002100F02F
:101A10001000019001983620FFF716FB362014E0E5
:101A20000020019043F64000C4F202000168002249
:101A300041F0200101600068002100F020000190C9
:101A400001983720FFF700FB372002B0BDE8804047
:101A5000FFF7EABA80B590F83C20012A4FF0020265
:101A600000F0C280012380F83C3080F83D20D0F89F
:101A700000C04FF67772DCF8083023EA0202CCF897
:101A800008200B684F2B28DC1F2B43DD202B44D074
:101A9000302B42D0402B40F0A980D1F804E0C96837
:101AA000DCF82030DCF8202022F00102CCF82020E5
:101AB000DCF8182022F0F00242EA011123F00A02B9
:101AC00042EA0E02CCF81810CCF82020DCF80810FE
:101AD00041F0470121F030017DE06F2B25DDB3F5AA
:101AE000005F46D0B3F5805F77D0702B7ED1D1E90F
:101AF00001E3C968DCF8082043EA0E0322F47F42C0
:101B000043EA01211143CCF80810DCF8081041F039
:101B1000770160E00BB1102B68D1DCF8081021F0E0
:101B20007001194341F0070155E0502B34D0602B70
:101B30005CD1D1F804E0C968DCF8203023F0100350
:101B4000CCF82030DCF81830DCF8202023F4704387
:101B500022F0A00243EA013142EA0E12CCF818103A
:101B6000CCF82020DCF8081041F0670121F01001CA
:101B700031E0D1E901E3C968DCF8082043EA0E034B
:101B800022F47F4243EA01211143CCF80810DCF82B
:101B9000081041F480411EE0D1F804E0C968DCF887
:101BA0002030DCF8202022F00102CCF82020DCF8E4
:101BB000182022F0F00242EA011123F00A0242EA60
:101BC0000E02CCF81810CCF82020DCF8081041F0F8
:101BD000570121F02001CCF808100022012180F8E3
:101BE0003D10002180F83C10104680BD0122F5E731
:101BF0007047000010B5044600680169890744BFBA
:101C0000C1685FEA81713FD420680169490744BF18
:101C1000C1685FEA417143D420680169090744BF84
:101C2000C1685FEA017148D420680169C90644BFF0
:101C3000C1685FEAC1614CD420680169C9071CBF53
:101C4000C1685FEAC17151D120680169090644BFCA
:101C5000C1685FEA016150D420680169490644BF48
:101C6000C1685FEA41614FD421680869800646BFB8
:101C7000C8685FEA806010BD6FF0200220460A61EC
:101C8000BDE81040FFF792BD6FF002010161012134
:101C90002177806980073ED02046FFF7A9FF40E00A
:101CA0006FF00401016102212177806910F4407F07
:101CB0003AD02046FFF79CFF3CE06FF0080101613D
:101CC00004212177C069800737D02046FFF790FFB5
:101CD00039E06FF01001016108212177C06910F42B
:101CE000407F33D02046FFF783FF35E06FF00101DE
:101CF0000161204600F06AFAA6E76FF080010161F9
:101D00002046FFF751FDA7E76FF040010161204633
:101D100000F05EFAA8E7204600F0FEF8204600F04A
:101D200053FA002020776FE7204600F0F5F82046B0
:101D300000F04AFA002020776EE7204600F0ECF829
:101D4000204600F041FA002020776DE7204600F0A1
:101D5000E3F8204600F038FA002020776CE7000016
:101D6000F0B587B0006840F6FF31C4F20001884248
:101D70004FF000010691CDE90411CDE9021130DDEB
:101D800040F60041C4F20001884255D040F20041C3
:101D9000C4F2010188426DD00021C4F201018842E1
:101DA00040F0B880002043F630010190C4F20201F7
:101DB0000A6842F010020A60096801F010010191FE
:101DC00001994FF4D44102910221CDE9031005900D
:101DD0000120069040F60000C4F2020000F5006405
:101DE00094E040F20041C4F20001884273D040F612
:101DF0000001C4F20001884240F08C80002043F6CC
:101E000030010190C4F202010A6842F008020A603F
:101E1000096801F00801019101994FF48041029194
:101E20000221CDE90310CDE9050140F60000C4F21E
:101E3000020000F5806469E0002043F63001019063
:101E4000C4F202010A6842F080020A60096801F0E7
:101E50008001019101994FF4A05102910221CDE935
:101E60000310CDE9050140F60000C4F2020000F5C0
:101E7000A0544BE0002543F630000195C4F2020067
:101E8000016840F6000441F4807101600168C4F209
:101E9000020401F480710191019901950168022603
:101EA00041F0040101600068032700F00400019084
:101EB0000198C020029004F5C05002A9CDE9036545
:101EC00005950697FEF734FF4020CDE90206CDE9DF
:101ED000045506971AE0002043F630010190C4F241
:101EE00002010A6840F6000442F004020A60096830
:101EF000C4F2020401F00401019101994FF48071D0
:101F000002910221CDE90310CDE9050102A9204685
:101F1000FEF70EFF07B0F0BD704700002DE9F0435B
:101F200090F83C30012B04BF0220BDE8F0834FEA5B
:101F3000B2020123032A80F83C3000F2F580DFE88A
:101F400002F0023E7DBD036840F200471A6A43F486
:101F5000806522F001021A621C6A1A46D3F804E076
:101F600052F818CF8E6824F00204C4F20107BD4273
:101F700044EA060405D1CE6824F00C0426F00406D9
:101F800034430E68BD4207D1D1E905572EF4407E97
:101F900045EA0E0545EA070E2CF073073743C3F8F0
:101FA00004E09F614F6809695F631C629F6947F0A5
:101FB00008079F619F6927F004079F61B0E00368ED
:101FC00040F200481A6A43F4806522F010021A6257
:101FD0001C6A1A46D3F804C052F818EF8F6824F030
:101FE0002004C4F20108454544EA071407D1CF682C
:101FF0006FF0400624F0C00406EA07163443D1F817
:102000000090454506D1D1E905562CF440672E4392
:1020100047EA860C2EF4E64747EA0927C3F804C0CE
:102020009F614F6809699F631C629F6947F400675D
:102030009F619F6927F480679F6170E0036840F2A9
:1020400000481A6A43F4806522F480721A621C6A9E
:102050001A46D3F804C052F81CEF8F6824F40074B9
:10206000C4F20108454544EA072408D1CF6840F28C
:10207000FF463F0224F4406427EA06063443D1F8C1
:102080000090454506D1D1E905562CF440572E4322
:1020900047EA061C2EF0730747EA0907C3F804C095
:1020A000DF614F680969DF631C62DF6947F0080779
:1020B000DF61DF6927F00407DF6131E0036840F288
:1020C00000451A6A43F4806722F480521A621A4665
:1020D000D3F820C05C6852F81CEFD1F800808E68FD
:1020E000C4F20105AF4204D14D6924F4804444EAAE
:1020F00085142CF4005747EA06372EF4E64646EAE4
:1021000008265C60DE614E6809691E641F62DF6933
:1021100047F40067DF61DF6927F48067DF61090248
:102120001368194300231160002180F83C10184601
:10213000BDE8F083002804BF0120704710B50446B5
:1021400090F83D0028B9002084F83C00204600F0BB
:102150001FF8022084F83D002068211D01F0A6F838
:10216000012084F8460084F83E0084F83F0084F89B
:10217000400084F8410084F8420084F8430084F869
:10218000440084F8450084F83D00002010BD0000A4
:1021900081B0006840F20041C4F20101884201D0E0
:1021A00001B070470020009043F64400C4F20200E2
:1021B000016841F002010160006800F00200009037
:1021C000009801B0704700007047000070470000A1
:1021D000704700007047000070470000B0B582B043
:1021E000044600680168C368426901F02F05202D8C
:1021F00003F0200506D12DB1204602B0BDE8B04065
:1022000001F086B95FEA017C1EBF02F0010E03F403
:10221000907212EB0E0253D1226B012A05D111F0FC
:10222000100218BF13F0100236D10A0622D513F09F
:1022300080021FD094F83D1021293FD1A168B1F54B
:10224000805F03D12169002900F03F81216A4A1C87
:10225000226209784160E18C01390A04E1842DD1C0
:10226000C16821F08001C160C16841F04001C160D6
:1022700002B0B0BD490621D513F040011ED0C1689F
:1022800021F04001C1602021204684F83D1002B0B9
:10229000BDE8B04000F082BA0021019101680191CF
:1022A0004168019101994069400611D4A08DE18DEA
:1022B000E28D002A18BF884240F0DB8002B0B0BD3A
:1022C000C80718BF13F4807045D1480749D44FE0C0
:1022D000A06B016849688AB2002AEFD0A38D9A42A8
:1022E000ECD2E185C069B0F5807F30D0206850E83D
:1022F000030F216820F4807041E80302002AF5D121
:10230000206850E8050F216820F0010041E805022F
:10231000002AF5D1206850E8050F216820F0400020
:1023200041E80502002AF5D1202084F83E00002073
:10233000206300BF206850E8030F216820F01000E0
:1023400041E80302002AF5D1A06BFEF7EBFAA08D5D
:10235000E18D401AB2E0206C40F001002064480793
:1023600006D5BEF1000F03D0206C40F002002064BF
:10237000880706D5BEF1000F03D0206C40F00400A2
:102380002064BCF1000F09D545EA0E00B0FA80F0D8
:10239000400903D1206C40F008002064206C002824
:1023A0003FF48CAF11F0200018BF002D02D0204662
:1023B00001F0AEF820684069216C00F0400001F0A7
:1023C0000801401848D000BF206850E8030F21687A
:1023D00020F4907041E80302002AF5D1206850E80B
:1023E000050F216820F0010041E80502002AF5D11F
:1023F000206B01280AD100BF206850E8030F216834
:1024000020F0100041E80302002AF5D1202084F8D2
:102410003E000020206320684069400623D500BFAD
:10242000206850E8050F216820F0400041E80502CF
:10243000002AF5D1A06BB0B143F2D131C0F6000152
:102440000165FEF7AFFA00283FF438AFA06B016DCD
:1024500002B0BDE8B04008472046FFF7BDFE0020AF
:10246000206402B0B0BD204602B0BDE8B040FFF726
:10247000B3BE401A216851E8031F226821F490710D
:1024800042E80313002BF5D1216851E8051F2268AB
:1024900021F0010142E80513002BF5D1202184F839
:1024A0003E100021216300BF216851E8031F22680C
:1024B00021F0100142E80313002BF5D181B2204630
:1024C00002B0BDE8B040FFF785BE216A31F8022BAB
:1024D0006FF35F2242602162BDE60000002804BF66
:1024E0000120704710B5044690F83D0028B900203F
:1024F00084F83C00204600F021F8242084F83D00B8
:102500002068C16821F40051C160204601F060F8E4
:102510002068016921F490410161416921F02A019B
:102520004161C16841F40051C16000202021206454
:1025300084F83D1084F83E1010BD00002DE9F043F2
:1025400087B00446006844F60001C4F2000100268A
:102550008842CDE90566CDE90366029653D041F283
:102560000041C4F20101884200F0A28041F2000162
:10257000C4F20101884240F0C680002643F63000D4
:102580000196C4F202004169002441F0100141614A
:102590004169C4F2020401F0100101910199019610
:1025A000016802AD41F00201016001684FF00208CC
:1025B00001F0020101910199019601684FF00309B0
:1025C00041F0010101600068072700F0010001905F
:1025D00001988020029004F580602946CDE90386A9
:1025E000CDF814900697FEF7A3FB4FF40070CDE9E9
:1025F000020820462946CDE904690697FEF798FBB4
:1026000007B0BDE8F08343F630000196C4F2020043
:10261000016941F480210161016901F48021019186
:1026200001990196016841F004010160006802A966
:1026300000F00400019001984FF4406002900220E5
:10264000CDE9030603200590072006900020C4F280
:10265000020000F50060FEF76BFB40F20C1546F23D
:102660002800C2F20005C4F202004FF0006185E8C4
:1026700043004FF440304FF48062C5E90806284615
:10268000C5E90362C5E90566EE61FEF763FA002855
:1026900018BFFDF7E3FE272000210022A563AC63ED
:1026A000FEF7D2FC2720FEF7BFFC07B0BDE8F083A1
:1026B000002043F630010190C4F202014A6942F061
:1026C00020024A614A6902F020020192019A0190B7
:1026D0000A6842F040020A60096801F04001019175
:1026E00001994FF4844102910221CDE903100320A6
:1026F0000590082006900020C4F2020000F5C050AA
:1027000002A9FEF715FB07B0BDE8F08310B590F8FD
:102710003E30202B0BD100294FF0010418BF002AB6
:1027200001D1204610BD90F83C30012B01D1022090
:1027300010BD0123002480F83C30046300F0BEFF8C
:10274000204610BD10B540F20C41C2F200010068F5
:102750000968884218BF10BD40F26C10C2F2000038
:10276000FEF7EEFB40F29444C2F20004204601F072
:1027700011F840F20C40C2F2000021461222FFF78D
:10278000C5FF41F60040C4F202004FF4006101228F
:10279000BDE81040FEF79CBB70470000704700008A
:1027A000FEE7000010B584B040F27400C2F20000F1
:1027B00042F2002C4FF080544FF000620021C4F22E
:1027C000010C4FF48033C0E90A240124CDE9021141
:1027D000CDE90011017680F82010C46180F8301036
:1027E000C0E900C3C0E90211C0E90414FDF7C0FE4E
:1027F000002818BFFDF732FE0820CDE900040220B2
:10280000029040F27400C2F200006946FDF72CFE0F
:10281000002818BFFDF722FE04B010BD80B540F2BD
:10282000BC0046F20041C2F20000C4F200010322E3
:10283000002380E80E0000F10C014FF4102C4FF43F
:10284000001E81E808504FF480710183C0F81A30EF
:10285000FDF76AFF002808BF80BDBDE88040FDF796
:10286000FDBD000080B540F2E40046F60001C2F272
:102870000000C4F200010322002380E80E0000F1F2
:102880000C014FF4102C4FF4001E81E808504FF457
:1028900080710183C0F81A30FDF746FF002808BF99
:1028A00080BDBDE88040FDF7D9BD000080B582B095
:1028B0000020019043F63000C4F2020001680022BB
:1028C00041F4001101600068002100F40010019043
:1028D00001980C20FEF7B8FB0C2002B0BDE8804048
:1028E000FEF7A2BB2DE9F04F87B0002543F630007C
:1028F0000695CDE90455CDE902550195C4F20200D3
:102900000168002441F0100101600168C4F2020472
:1029100001F01001019101990195016804F5E0565B
:1029200041F0020101600168002201F00201019101
:102930000199019501684FF4006B41F0400101607D
:10294000016801F04001019101990195016841F090
:1029500008010160016801F00801019101990195E8
:10296000016841F004010160016801F00401019176
:1029700001990195016841F001010160016801F0D0
:102980000101019101990195016841F48071016093
:10299000016801F48071019101990195016841F08C
:1029A00080010160016801F08001019101990195A8
:1029B000016841F02001016000684FF4006100F0FF
:1029C0002000019001983046FEF782FA204610213F
:1029D00001224FF00109FEF77BFA04F580684046BA
:1029E00001210122FEF774FA49F2FF5002AF029072
:1029F0004FF0030A04F580503946CDE903A5FEF7F0
:102A000097F94FF60670CDE9020A4046394604951B
:102A1000FEF78EF94BF6FF50CDE9020A04F5C050DF
:102A200039460495FEF784F94BF6FC70CDE9020AAD
:102A300004F5406039460495FEF77AF94FF2BF205D
:102A4000CDE9020A04F5006039460495FEF770F9F5
:102A500049F66E50CDE9020A204639460495FEF744
:102A600067F940F63F70CDE9020A04F50050394697
:102A70000495FEF75DF94EF2FC30CDE9020A3046CE
:102A800039460495FEF754F94FF6FF30CDE9020AB6
:102A900004F5A05039460495FEF74AF93046394608
:102AA000CDE902B9CDE90455FEF742F94FF488109B
:102AB000CDE9030520463946CDF80890FEF738F9F0
:102AC0001020CDE9020920463946CDE90495FEF7EC
:102AD0002FF940463946CDE90299CDE90495FEF734
:102AE00027F907B0BDE8F08F80B540F26C1043F2D3
:102AF0000001C2F20000C4F20001012240F6FF739F
:102B000080E80E00FEF7F0F9002808BF80BDBDE8A0
:102B10008040FDF7A3BC0000B0B540F2781043F24E
:102B20000001C2F20000C4F201014FF482720023DE
:102B300080E80E0000F10C014FF0020C4FF0010E86
:102B40004FF40074182581E808500A21C0E90645B1
:102B5000C0E90833C0E90A31FEF760FD002808BF6C
:102B6000B0BDBDE8B040FDF779BC000010B596B02F
:102B700040F2D01000220021C2F20000C4F2010293
:102B80004FF6FF731591CDE91311CDE91111CDE980
:102B90000F11CDE90D11CDE90B11CDE90911CDE9E9
:102BA0000711CDE90511CDE90311CDE90111C0E906
:102BB0000021C0E90213C0E904118161FEF77AFE29
:102BC000002818BFFDF74AFC4FF48050129040F2E5
:102BD000D010C2F2000012A9FEF73CFF002818BF77
:102BE000FDF73CFC40F2D010C2F20000FFF7A2FA61
:102BF000002818BFFDF732FC40F2D0100024C2F2CA
:102C0000000010A9CDE91044FEF7F8FD002818BF18
:102C1000FDF724FC6020CDE9090440F2D010C2F297
:102C2000000009A90022CDE90B44CDE90D440F9421
:102C3000FFF774F9002818BFFDF710FC40F2D01020
:102C4000C2F2000009A90422FFF768F9002818BFA2
:102C5000FDF704FC40F2D010C2F2000009A90822DE
:102C6000FFF75CF9002818BFFDF7F8FB40F2D01021
:102C7000C2F2000009A90C22FFF750F9002818BF82
:102C8000FDF7ECFB00200590CDE90300CDE9010044
:102C90004FF40051089040F2D0100691C2F20000AB
:102CA00001A9FEF785FD002818BFFDF7D7FB40F20C
:102CB000D010C2F20000FFF753F816B010BD0000AC
:102CC00010B58EB040F2182040F200420021C2F24E
:102CD0000000C4F200024FF6FF730D91CDE90B1115
:102CE000CDE90911CDE90711CDE90511CDE90311B0
:102CF000CDE90111C0E90021C0E902130161816140
:102D0000FEF7D8FD002818BFFDF7A8FB4FF4805050
:102D10000A9040F21820C2F200000AA9FEF79AFEBB
:102D2000002818BFFDF79AFB40F21820C2F20000FD
:102D3000FFF700FA002818BFFDF790FB40F21820BB
:102D40000024C2F2000008A9CDE90844FEF756FDB0
:102D5000002818BFFDF782FB6020CDE9010440F296
:102D60001820C2F2000001A9082203940594FFF77D
:102D7000D5F8002818BFFDF771FB40F21820C2F209
:102D80000000FEF7EDFF0EB010BD000010B58EB0D4
:102D900040F2602040F600020021C2F20000C4F2BE
:102DA00000024FF6FF730D91CDE90B11CDE909112A
:102DB000CDE90711CDE90511CDE90311CDE90111E7
:102DC000C0E90021C0E90213016180218161FEF7A1
:102DD00071FD002818BFFDF741FB4FF480500A90A9
:102DE00040F26020C2F200000AA9FEF733FE00287C
:102DF00018BFFDF733FB40F26020C2F20000FFF77E
:102E000099F9002818BFFDF729FB40F26020002443
:102E1000C2F2000008A9CDE90844FEF7EFFC002843
:102E200018BFFDF71BFB6020CDE9010440F26020D4
:102E3000C2F2000001A9082203940594FFF76EF87E
:102E4000002818BFFDF70AFB40F26020C2F2000024
:102E5000FEF786FF0EB010BD10B58EB040F2A82070
:102E600040F600420021C2F20000C4F200026323D7
:102E70000D91CDE90B11CDE90911CDE90711CDE98E
:102E80000511CDE90311CDE90111C0E90021C0E927
:102E9000021301618161FEF70DFD002818BFFDF7E7
:102EA000DDFA4FF480500A9040F2A820C2F20000F0
:102EB0000AA9FEF7CFFD002818BFFDF7CFFA40F2B0
:102EC000A820C2F20000FFF735F9002818BFFDF76F
:102ED000C5FA40F2A8200024C2F2000008A9CDE9FA
:102EE0000844FEF78BFC002818BFFDF7B7FA6020F6
:102EF000CDE9010440F2A820C2F2000001A900229D
:102F000003940594FFF70AF8002818BFFDF7A6FA06
:102F100040F2A820C2F2000001A90822FEF7FEFF3D
:102F2000002818BFFDF79AFA40F2A820C2F200006C
:102F3000FEF716FF0EB010BD10B582B040F2F020C3
:102F400041F200010024C2F20000C4F2000140F28C
:102F5000E733CDE90044532280E81600C360846162
:102F6000FEF7A8FC002818BFFDF778FA40F2F02021
:102F7000C2F200006946CDE90044FEF73FFC00289C
:102F800018BFFDF76BFA02B010BD000010B582B09B
:102F900040F2383041F20041C2F20000C4F20001B8
:102FA0000024532240F2E73380E816008021CDE967
:102FB0000044C3608161FEF77DFC002818BFFDF767
:102FC0004DFA40F23830C2F200006946CDE90044C3
:102FD000FEF714FC002818BFFDF740FA02B010BD40
:102FE00010B592B040F2803040F200410024C2F2AD
:102FF0000000C4F201014FF6FF721194CDE90F44B5
:10300000CDE90D44CDE90B44CDE90944CDE90744B0
:10301000CDE90544CDE90344CDE90144C0E90014FC
:10302000C0E90242C0E904448461FFF783F8002844
:1030300018BFFDF713FA40F28030C2F2000010A969
:10304000CDE91044FEF7DAFB002818BFFDF706FAB9
:10305000602009900020CDE90A00CDE90C00CDE9FF
:103060000E0040F28030C2F2000009A90022FEF7F3
:1030700055FF002818BFFDF7F1F940F28030C2F289
:10308000000009A90422FEF749FF002818BFFDF738
:10309000E5F940F28030C2F2000009A90822FEF7EB
:1030A0003DFF002818BFFDF7D9F900200590CDE9B4
:1030B0000300CDE901004FF40051089040F2803048
:1030C0000691C2F2000001A9FEF772FB002818BFAA
:1030D000FDF7C4F940F28030C2F20000FEF740FE76
:1030E00012B010BD80B540F2C83041F20001C2F20A
:1030F0000000C4F2010148F2A06200234FF00C0C62
:10310000C0F2010280E80E00C0E90333C0E905C344
:10311000C361FFF7E3F9002808BF80BDBDE8804028
:10312000FDF79CB910B540F20C4044F6000C48F293
:10313000A062C2F20000C4F2000CC0F201024FF41F
:10314000805300214FF4806E0424C0E900C2C0E91E
:103150000231C0E904E4C0E90611FFF7BFF9002815
:1031600008BF10BDBDE81040FDF778B980B540F24A
:10317000504041F20041C2F20000C4F201010023BC
:103180004FF00C0C4FF4E13280E80E00C0E903333D
:10319000C0E905C3C361FFF7A1F9002808BF80BDDE
:1031A000BDE88040FDF75AB9FEE70000FEE70000E9
:1031B0007047000070470000FDF7C8BE70B592B0C0
:1031C00006AC20463021FDF7C9F8002543F6400043
:1031D0000595CDE90355CDE901550095C4F20200EE
:1031E0000168022641F080510160006800F08050C3
:1031F0000090009847F200000095C4F200000168BA
:1032000041F480410160006800F480400090009823
:10321000092006904FF48030079001200B904FF466
:1032200080000D9006200E90A820CDE90F06042006
:10323000119020460C96FEF74FF820B1EFF3108066
:1032400072B600BFFEE70F20CDE901064FF4A05093
:1032500004904FF48050059001A805210395FDF7D7
:103260002FFF20B1EFF3108072B600BFFEE712B05F
:1032700070BD00004EF68850CEF20000016841F4A7
:10328000700101607047000040F2D010C2F20000EF
:10329000FEF7B0BC40F2F020C2F20000FEF7AABC7C
:1032A00040F23830C2F20000FEF7A4BC10B540F680
:1032B000FF3E0368C4F2000E40F2004C7045C4F2B9
:1032C000010C0FDCB0F1804F19D040F20042C4F283
:1032D0000002904213D040F60002C4F20002904275
:1032E0000DD010E040F60042C4F20002904206D039
:1032F000604504D00022C4F20102904203D14A6822
:1033000023F07003134341F6FF72C4F200029042AF
:103310000DDC70451FDCB0F1804F41D040F200421F
:10332000C4F2000290423BD040F6000221E043F696
:10333000FF72C4F20102904220DC42F20002C4F2A9
:10334000000290422CD00022C4F20102904227D009
:10335000604525D028E040F60042C4F200029042C9
:103360001ED041F60002C4F20002904218D041F68D
:103370000042C4F20002904212D015E044F2000272
:10338000C4F2010290420BD044F60002C4F20102E2
:10339000904205D044F20042C4F20102904203D1AF
:1033A000CA6823F44073134323F080024B69D1F8B9
:1033B00000E08C681A430260C46240F48062C0F886
:1033C00028E0624504BF096901630121416110BD24
:1033D000806B0021C185C184FEF7FEBE806B016851
:1033E000496990F83D20212A11D111F080010ED0B9
:1033F0000021C184016851E8031F026821F0C00167
:1034000042E80313002BF5D1202180F83D1001681C
:10341000496990F83E20222A2BD111F0400128D092
:103420000021C185016851E8031F026821F49071F1
:1034300042E80313002BF5D1016851E8051F02682B
:1034400021F0010142E80513002BF5D1016B0129A0
:103450000AD100BF016851E8031F026821F0100182
:1034600042E80313002BF5D1202180F83E10002103
:103470000163016C41F010010164FEF7ADBE000074
:103480000168806B0968C90530D40021C18500BF7F
:10349000016851E8031F026821F4807142E80313B8
:1034A000002BF5D1016851E8051F026821F00101E8
:1034B00042E80513002BF5D1016851E8051F0268A9
:1034C00021F0400142E80513002BF5D1202180F8BE
:1034D0003E10016B012909D1016851E8031F026800
:1034E00021F0100142E80313002BF5D1016B0129F3
:1034F00018BFFFF727B9818DFEF76CBE806B016B9B
:10350000012918BFFFF748B9818D4908FEF762BE4F
:1035100081B090F83E1022291DD18268B2F5805FFB
:1035200002D10169002946D0816AB2F5805F07D0D7
:103530000AB9026922B10268526802F07F0201E012
:10354000026852680A70816A01318162C18D013955
:103550000A04C18501D001B070470168CA6822F031
:103560002002CA60CA6822F48072CA604A6922F0E6
:1035700001024A61202180F83E10016B012923D10C
:1035800000210163016851E8031F026821F0100166
:1035900042E80313002BF5D101680A68D20606D56C
:1035A000002200920A680092496800910099818D7A
:1035B00001B0FEF70FBE0168826A49686FF35F21B0
:1035C00022F8021B8262C1E701B0FFF7BBB800001E
:1035D00010B504460068D4E902C22369016921F4E8
:1035E000405111430161626943EA0C01E3691143EF
:1035F000C268194349F20C639A431143C16041699F
:10360000A26921F4407141F20043114340F4806209
:10361000C4F201039A42416102D1FDF715FE01E0B7
:10362000FDF7FEFDE16963681922B1F5004FA0FBCB
:10363000020121D15A00DB0FFCF718FE48F21F519E
:10364000C5F2EB11A0FB01235A094FF69C73C0F69B
:10365000FF7303F1805302FB0300322303EBC0002E
:10366000A0FB01014FF4F87000EA111000EB02100A
:10367000C1F3421108441DE09A009B0FFCF7F6FDD0
:1036800048F21F51C5F2EB11A0FB01235A094FF676
:103690009C73C0F6FF7302FB0300322303EB0010A0
:1036A000A0FB0101F02000EA511000EB0210C1F371
:1036B000431108442168886010BD000070B582B0D5
:1036C000134600260446816283850664222084F81E
:1036D0003E000A462168A06B43F2814C43F2FD4E46
:1036E00043F2DD35C0F6000CC0F6000EC0F6000552
:1036F0000431C0E90FCEC0E91356FDF7CBFA0196AD
:10370000206801680191406801900198206984F85F
:103710003C6048B1206850E8030F216840F4807095
:1037200041E80302002AF5D1206850E8050F21681E
:1037300040F0010041E80502002AF5D1206850E878
:10374000050F216840F0400041E80502002AF5D14C
:10375000002002B070BD000040F20C40C2F2000038
:10376000FEF73CBDFEE7000040F29440C2F20000CC
:1037700000F030B801460020C1F81600C1F8120070
:1037800040F20C4040F20333C2F2000012224B839D
:10379000FEF7BCBF01784278837862F30A2190F883
:1037A00003C04182D10863F34A1181824FEA8C0140
:1037B000027941EA931162F38A21C1824179520868
:1037C00061F3CA120283C1F3011289098276C176BC
:1037D0007047000000210182C1608160416001608A
:1037E000C0F81610C0F812104183704740F29440A0
:1037F000C2F20000FFF7BEBFFDF7B6FBFFF7DEFC2D
:10380000FFF770F8FFF752F8FFF7B0FCFEF7CAFFBA
:10381000FFF704F8FFF726F8FFF766F9FFF77CF9E2
:10382000FFF7A4F9FFF74CFAFFF7B0FAFFF714FB24
:10383000FFF782FBFFF7AAFBFFF7D2FBFFF752FC73
:10384000FFF770FCFFF7D2FFFEE7F1EE100A4FF62C
:10385000FF71C0F2C03120EA010040F04070E1EE9B
:10386000100A70470000000000000000010203047D
:1038700006070809000000000102030400061016F4
:1038800000061016A83800080000002010000000F4
:10389000C4010008B838000810000020A834000057
:1038A000E0010008C5FEFFFF0024F4000100000055
:0838B000100000000000000000
:040000050800018965
:00000001FF
