:020000040800F2
:10000000A83400202902000869350008F12C0008F6
:1000100065350008E1030008ED3B00080000000022
:100020000000000000000000000000007135000822
:10003000F1030008000000006D3500087535000868
:10004000430200084302000843020008430200087C
:10005000430200084302000843020008430200086C
:10006000430200084302000843020008430200085C
:10007000E5030008430200084302000843020008A9
:100080004302000843020008D503000843020008A9
:10009000430200084302000843020008430200082C
:1000A000430200084302000843020008430200081C
:1000B000430200084302000843020008430200080C
:1000C00043020008430200084302000843020008FC
:1000D00043020008C93B000843020008D53B000862
:1000E00043020008430200084302000843020008DC
:1000F00043020008430200084302000843020008CC
:1001000043020008430200084302000843020008BB
:1001100043020008430200088D35000899350008A5
:10012000430200084302000843020008430200089B
:10013000430200084302000843020008430200088B
:10014000430200084302000843020008430200087B
:10015000430200084302000843020008E13B000894
:10016000430200084302000843020008430200085B
:100170004302000843020008430200080000000098
:10018000430200084302000800F002F800F03CF8C7
:100190000AA090E8000C82448344AAF10107DA45E2
:1001A00001D100F031F8AFF2090EBAE80F0013F0F8
:1001B000010F18BFFB1A43F001031847EC3B000086
:1001C0000C3C0000103A24BF78C878C1FAD8520716
:1001D00024BF30C830C144BF04680C6070470000C1
:1001E0000023002400250026103A28BF78C1FBD840
:1001F000520728BF30C148BF0B6070471FB503F0DE
:10020000B5FD1FBD10B510BD00F0A9F81146FFF7F0
:10021000F5FF03F085FD00F0C7F803B4FFF7F2FF28
:1002200003BC00F0CFF800000948804709480047A8
:10023000FEE7FEE7FEE7FEE7FEE7FEE7FEE7FEE796
:10024000FEE7FEE704480549054A064B70470000F3
:100250007935000889010008A8040020A83400208E
:10026000A8140020A814002053EA020C00F06980B2
:100270002DE9F04B4FF00006002B1FBFB3FA83F5BA
:1002800003FA05F424FA05F65E4012BF1643B2FAEB
:1002900082F502FA05F4C5F120051EBF22FA05FC1D
:1002A00044EA0C04203556EA044C4FEA144418BFC3
:1002B000641C4FF000084FF00009904271EB030CF2
:1002C00039D3002919BFB1FA81F701FA07F6B0FA5C
:1002D00080F700FA07F6C7F120071EBF20FA07FCD7
:1002E00046EA0C062037B6FBF4FCA7EB0507103FE7
:1002F00007F01F0BCBF120062CFA06F60CFA0BFBCD
:1003000044BFB3460026202FA4BF5E464FF0000B2B
:100310005BEA060C08BF4FF0010B19EB0B0948EB29
:100320000608ABFB027C06FB02CC0BFB03CCC01B1C
:1003300071EB0C01C1E70B46024641464846BDE859
:10034000F08B13B5084318BF4FF0FF300146AFF3F1
:100350000080BDE81C407047704770477047754685
:1003600000F02CF8AE4605006946534620F0070021
:10037000854618B020B5FFF765FFBDE820404FF077
:1003800000064FF000074FF000084FF0000BAC469E
:10039000ACE8C009ACE8C009ACE8C009ACE8C009E9
:1003A00021F007018D46704710B50446AFF3008079
:1003B0002046BDE81040FFF730BF000000487047FE
:1003C0001000002001491820ABBEFEE72600020005
:1003D0007047000040F27400C2F2000000F0B8B8AC
:1003E000FEE7000040F20C10C2F2000000F08ABBF1
:1003F00070470000EFF3108072B6000070470000F5
:1004000070B581B00022009290F83C20012A03D1FF
:100410000221084601B070BD0E6801220A2E80F844
:100420003C2009D3B2B25200D0F800E012FA86F2B2
:100430001E3A0EF10C0305E0D0F800E006EB460290
:100440000EF110034FF0070C1D680CFA02F4A543DF
:100450001D608D681C6805FA02F222431A60496823
:1004600006290FD801EB81014A1F71461F2351F85D
:10047000345F934025EA03030B60B3B203FA02F240
:1004800014E000BF01EB81030C29B2B204D871461D
:1004900051F8304F233B03E0714651F82C4F413B5C
:1004A0001F259D4024EA05059A400D600B6842F225
:1004B000043CC4F2010C1A43ACF541739E450A603A
:1004C0003BD1122E06D1DCF8001041F48001CCF8AB
:1004D000001032E026F0010110292ED1DCF80010C6
:1004E000102E41F40001CCF8001026D140F2080192
:1004F000C2F2000109684DF68362C4F21B32A1FB0F
:100500000212910C01EB8101490000910099A1B107
:10051000009901390091009979B100990139009150
:10052000009951B1009901390091009929B10099C0
:100530000139009100990029EAD1002180F83C108E
:10054000084601B070BD0000704700007047000011
:1005500070B50446006806684568B10717D515F000
:10056000200114D0216CC90603D4216C41F4007120
:100570002164816811F0405F02D1217E002969D099
:100580002046FFF7E1FF20686FF01201016071075C
:1005900014D515F0800111D0216CC90603D4216C4B
:1005A00041F400512164816811F4401F22D020469B
:1005B000FFF724FF20686FF00C010160F10706D0FF
:1005C00015F040011CBF01685FEAC17134D1B1066A
:1005D0000FD515F0806108BF70BD616C6FF020050C
:1005E00041F00201616405602046FFF7AFFF20681B
:1005F000056070BD816B11F4401F02D08168490510
:10060000D5D441684905D2D4816811F0405FCED17C
:10061000217E0029CBD1416821F080014160206C0E
:1006200020F480502064206CC005C0D4206C40F0C1
:1006300001002064BBE700BF206C40F480302064E0
:10064000204600F0D1F820686FF001010160B1068A
:10065000BFD4CEE7C16A11F4700F03D08168490599
:100660003FF58EAF416821F020014160206C20F4FD
:1006700080702064206CC0043FF582AF206C40F095
:10068000010020647CE70000002804BF01207047BF
:1006900010B50446006C00283ED0206CC00645D43E
:1006A000206C41F202118843023042F2043120648E
:1006B000C4F20101086820F4403008600A6894E838
:1006C00009101A43D4F810E00A604168012321F4AC
:1006D000807141604168C0F6007341EA0E214160BB
:1006E000416821F040714160416841EA0C0141607C
:1006F000816821F400618160E16882681143816052
:10070000A16A8268994222F070628260826813D185
:1007100022F0405119E000BF204600F067F80020A9
:10072000606484F83C00206CC006B9D5012000212B
:1007300084F83C1010BD00BF11438160816821F036
:1007400040518160E16A826811438160816821F0D3
:10075000020181608168227E94F8203041EA4201E2
:100760008160416883B141F40061416041684EF2AB
:10077000000221F460414160616ACFF6FF72436874
:1007800002EB4131194301E021F400614160C16A8B
:1007900040F2000C21F47001C162E2696169CFF698
:1007A000F07CC36A0CEB02521A43C262826822F4E4
:1007B0000072826094F83020836843EA42228260AB
:1007C000826822F480628260826842EA81218160CC
:1007D00000206064216C012262F301012164002188
:1007E00084F83C1010BD00007047000080B586B052
:1007F00042F200210068C4F2010100228842059201
:10080000049201D006B080BD43F630000092C4F2DD
:100810000200436943F480634361436903F48063E6
:100820000093009B0092036843F02003036000687C
:1008300000F02000009000984FF4806001900320A9
:10084000CDE9020201F5724001A900F03DFB06B0BE
:1008500080BD0000B0B5C8B1044690F8200010B9C2
:10086000204600F071F82068016841F00101016044
:1008700000F004FC054600BF20684168C90707D1A5
:1008800000F0FCFB401B0B28F6D312E00120B0BDAA
:10089000016821F00201016000F0F0FB054600BF95
:1008A0002068416889070DD500F0E8FB401B0B2844
:1008B000F6D3606A052140F400306062012084F8BC
:1008C0002010B0BD217E0268012922F0800208BFFD
:1008D00080320260617E0268012922F0400208BF76
:1008E00040320260A17E0268012922F0200208BF86
:1008F00020320260E17E0268012922F0100218BF56
:1009000010320260217F0268012922F0080208BF2C
:1009100008320260617F0268012922F0040208BFE8
:1009200004320260D4E901C2D4E9033561691A4393
:100930002A431143ACF101021143C161002001219E
:10094000606284F82010B0BD80B586B0006846F6BD
:100950000002C4F2000200219042CDE90411CDE969
:100960000211019132D046F20041C4F200018842E6
:100970006CD140F27001C2F200010A6843F64000F7
:10098000C4F20200531C0B6052B9002100910168AF
:1009900041F000710160016801F00071009100995F
:1009A0000021009150F8101C41F0080140F8101C83
:1009B00050F8100C032100F008000090009840F25D
:1009C0000040C4F2020000F5006033E043F640004E
:1009D000C4F202000091016841F080610160016889
:1009E00001F080610091009940F27001C2F20001B3
:1009F0000A68531C0B6052B900210091016841F054
:100A000000710160016801F00071009100990021FE
:100A1000009150F8101C41F0020140F8101C50F8F1
:100A2000100C602100F002000090009840F200409D
:100A3000C4F20200019102210291002103910321DD
:100A400004910921059101A900F03EFA06B080BD8C
:100A500070B5866D044600F011FB94F8351002293C
:100A600028D105462068216C026822F01602026037
:100A7000426922F08002426109B9A16C19B1016892
:100A800021F008010160016821F00101016000BF4F
:100A900020680068C00715D000F0F0FA401B062857
:100AA000F6D320206065032084F83500002184F807
:100AB000341070BD802060650120002184F834105E
:100AC00070BD00BFE06D3F2101FA00F0B060012071
:100AD00084F835000020002184F8341070BD000037
:100AE00090F83510022909D1052180F835100068E9
:100AF000016821F0010101600020704780214165FB
:100B000001207047F0B581B004460020009040F20B
:100B10000800C2F200000268D4E9166048F2B5137A
:100B200037680821C1F64E3381403942A2FB0325C4
:100B30000CD0226813685B0708D5136823F0040300
:100B40001360B160616D41F0010161650121814077
:100B5000394208D022685269120604D5B160616D2D
:100B600041F00201616504218140394208D02268C8
:100B70001268920704D5B160616D41F004016165AE
:100B800010218140394217D020680268120713D51E
:100B9000B16002680168520308D4C90508D401682D
:100BA00021F008010160216C21B905E008033FD460
:100BB000216C09B120468847E16D202000FA01F23E
:100BC0003A4241D020680368DB063DD5B26094F814
:100BD00035300268052B1BD122F0160202604269F3
:100BE00022F080024261226C0AB9A26C1AB102683A
:100BF00022F0080202603F208840B060012084F8A3
:100C00003500216D0020002984F8340052D157E0CE
:100C10000168520310D4C90512D4016821F01001F3
:100C20000160012084F83500002084F8340007E0DA
:100C3000A16C0029BED1BFE7080301D4616C00E0BC
:100C4000E16B09B120468847606DC8B3606DC0078D
:100C50002ED0052084F835002068A90A026822F009
:100C600001020260009A01328A4200921AD8026898
:100C7000D20717D0009A01328A42009212D8026835
:100C8000D2070FD0009A01328A4200920AD8026835
:100C9000D20707D0009A01328A42009202D8026835
:100CA000D207DFD1012084F83500002084F8340019
:100CB000E16C29B1204601B0BDE8F040084700BF13
:100CC00001B0F0BD2DE9F041044600F0D7F9ECB1D8
:100CD0000546022084F835000020216884F834009D
:100CE000086820F00100086021680868C00711D07A
:100CF00000F0C4F9401B0528F6D903252023032062
:100D0000636584F83550BDE8F08100BF0120BDE87F
:100D1000F08100BF086848F23F02CFF21002D4E928
:100D2000013500EA020C04F10C0898E8C10143EA1D
:100D30000C032B431843D4E9072E304338431043A8
:100D4000626A40EA0E00042A40EA08031CD1206BC4
:100D5000D4E90A2E40EA0E00184308604869BEF143
:100D6000000F20F0030040EA020040F0040C11D014
:100D7000B8F5005F36D0B8F1000F45D1022A46D051
:100D8000012A3BD032B942E00B60486920F00700ED
:100D900040EA020C01F0F8004AF6AB221038CAF61D
:100DA000AA22A0FB02231A0943F69E53C0F60003B1
:100DB0009A5C40F2FF335F284FF03F00C1F814C047
:100DC00021EA030100FA02F088BF0431C4E91612D7
:100DD0008860002301250020636584F83550BDE854
:100DE000F08100BF032AD5D8012540230120DFE888
:100DF00002F0030E030500BF82E700BFAEF1C07032
:100E0000B0FA80F0400904E0032A04D3C2D1CEF343
:100E100000600028BED0012540230120636584F8CE
:100E20003550BDE8F081000070B590F834C0BCF1D9
:100E3000010F46D04FF0010C80F834C0D0F858E0D4
:100E400090F835C0BCF1010F38D14FF0020C80F89A
:100E500035C04FF0000CC0F854C0D0F800C0846812
:100E6000056CC06DDCF80060402C26F48026CCF8C0
:100E70000060CCF804300B4604BF13460A463F21FD
:100E800001FA00F0CCF80830CCF80C20CEF80800BD
:100E9000DCF8000040F01600CCF800002DB1DCF8C2
:100EA000000040F00800CCF80000DCF8000040F042
:100EB0000100CCF80000002070BD00BF002180F8C8
:100EC0003410022070BD00002DE9F04F82B000F117
:100ED0003E4241F6004502F1FF77C4F202050822C6
:100EE00043F6004E4FEAB726A84208BF0722C4F2D5
:100EF000010E072E38BF4FEAB72201250026002732
:100F00004FF00008009208E008F101080437B8F13A
:100F1000100F06F1020600F0A7800C6805FA08F928
:100F200014EA090FF0D0D1F804B003220BF0030C3F
:100F3000ACF10104B240012C6FEA020A10D88268B9
:100F4000CC6802EA0A02B440224382604268CBF3D2
:100F5000001422EA090204FA08F42243426005E080
:100F6000BCF1030F02D14FF0030C20E0C2688C6883
:100F700002EA0A02B4402243BCF1020FC26016D159
:100F80006FF0030202EA58020244D2F820C007F0D0
:100F90001C050F230C69AB402CEA030304FA05F58A
:100FA0002B431362D1F804B001250BF0030C026847
:100FB0000CFA06F302EA0A021A431BF4403F0260ED
:100FC000A2D0002243F644030192C4F202031A683D
:100FD0004FF6084C42F480421A601A68CFF6FF7C44
:100FE00002F480420192019A28F00302724452F8FE
:100FF0000C3007F00C050F24AC40A343009C04FA0E
:1010000005F52B4342F80C30DEF808204B6842EA25
:10101000090543F60C4CDC0258BF22EA0905CEF85C
:101020000850C4F2010CDCF800209C0242EA0905D9
:1010300058BF22EA0905CCF80050DEF804209C03D2
:1010400042EA090558BF22EA0905CEF80450DEF845
:101050000020DB0342EA090558BF22EA0905CEF861
:101060000050012550E700BF02B0BDE8F08F00003E
:10107000002A08BF090481617047000040F2A440C3
:10108000C2F200000068704740F2000040F2A44144
:10109000C2F20000C2F2000100780A681044086041
:1010A0007047000080B543F60040C4F202000168BA
:1010B00041F400710160016841F4806101600168E0
:1010C00041F480710160032000F088F8002000F0F6
:1010D00005F800F027F8002080BD000070B540F250
:1010E0000006C2F2000640F208013278C2F20001A6
:1010F0004FF47A730968B3FBF2F20446B1FBF2F1E4
:10110000084600F0EFFB0F2C4FF0010508D838B966
:101110004FF0FF3021460022002500F033F87460C4
:10112000284670BD82B0002043F640010190C4F211
:1011300002014A6842F480424A604A6802F48042EE
:101140000192019A0090086840F080500860086899
:1011500000F080500090009802B07047002848BF0F
:101160007047C1B200F01F00012202FA00F04EF2F7
:101170000012CEF2000242EAD10121F00301086020
:101180007047000010B54EF60C5CCEF2000CDCF897
:101190000030C3F3022E8EF00704042C28BF042471
:1011A000BEF103034FF0FF3E0EFA04F438BF0023F4
:1011B000A14399400EFA03F39A43114300F00F0242
:1011C00000F160430901043A03F5644362440028D6
:1011D00048BF02F10C03197010BD00004EF60C510F
:1011E000CEF200010A684FF6FF031A4060F30A22AC
:1011F00042F0806040F0FD70086070472DE9F041DA
:10120000002800F08B8043F60808C4F20208044668
:10121000D8F8F8030D4600F00700884207D288F896
:10122000F853D8F8F80300F00700A84276D12068F8
:10123000810717D5410705D5D8F8001041F4E051D2
:10124000C8F80010010705D5D8F8001041F4604136
:10125000C8F80010D8F80010A26821F0F00111437E
:10126000C8F80010C0073FD1D8F8F80300F0070015
:10127000A84207D988F8F853D8F8F80300F0070017
:10128000A8424BD12068410707D5D8F80010E26882
:1012900021F4E0511143C8F80010000708D5D8F830
:1012A0000000216920F4604040EAC100C8F8000055
:1012B00000F07CF8D8F8001043F68652C1F3031111
:1012C000C0F60002515C40F2080220FA01F140F23F
:1012D0000400C2F200000068C2F200021160FFF7D1
:1012E000FDFE0020BDE8F0816068811E022907D262
:1012F00058F8081C89015CBF0120BDE8F08111E0AD
:10130000012807D158F8081C89035CBF0120BDE8FB
:10131000F08107E058F8081C890703D40120BDE8D4
:10132000F08100BFD8F8001021F003010843C8F88D
:101330000000FFF7A3FE064641F28837D8F8000008
:10134000616800F00C00B0EB810F8DD0FFF796FEC6
:10135000801BB842F2D90320BDE8F08140F20800BA
:1013600043F60801C2F20000C4F2020100680968F5
:1013700043F69652C1F38221C0F60002515CC84088
:101380007047000040F2080043F60801C2F2000076
:10139000C4F202010068096843F69652C1F3423173
:1013A000C0F60002515CC8407047000010B543F61B
:1013B0000404C4F20204606800F00C0008280BD09A
:1013C000042819BF42F20040C0F2F40041F6003098
:1013D000C0F2B70010BD00BF206821682368490231
:1013E00041F60031C0F2B70100F03F02C3F38810AC
:1013F0005CBF42F20041C0F2F401A1FB00010023F6
:10140000FEF732FF21680222C1F3014102EB4101E4
:10141000B0FBF1F010BD00002DE9F04182B00028D2
:1014200068D00446007843F60006C007C4F20206FE
:101430000BD0B06800F00C00042840F09F803068AA
:10144000800302D56068002854D0207880071AD520
:10145000B06810F00C0F09D0B06800F00C0008283C
:1014600040F0A6807068400200F1A28030688007DA
:1014700002D5E06801283DD13068216920F0F800EC
:1014800040EAC10030602078000737D42078400758
:101490004CD4A56955B3B06800F00C00082840F0A2
:1014A000BB80012D26D07068E16900F480028A4279
:1014B00020D1216A00F03F028A421BD147F6C07159
:1014C000626A0140B1EB821F14D1A16A4FF6FF732B
:1014D000C903994300F44032A1F580318A4209D111
:1014E000E16A00F07060B0EB016F03D1002002B040
:1014F000BDE8F081012002B0BDE8F08160690028FC
:1015000040F20000C4F2472076D00121C0F8801ECE
:10151000FFF7B4FD054600BF706F8007B6D4FFF734
:10152000ADFD401B0228F7D9DDE000BF306C10F0A4
:1015300080580AD100200190306C40F08050306417
:10154000306C00F080500190019847F20007C4F21F
:1015500000073868C00541D4386840F480703860AE
:10156000FFF78CFD054600BF3868C00536D4FFF78D
:1015700085FD401B0228F7D9B5E000BFB06800F038
:101580000C00082803D1706840023FF558AF60682E
:10159000B0F5803F07D0B0F5A02F40F08D803068C7
:1015A00040F480203060306840F4803030608DE05E
:1015B000E068002852D00020C4F2472001210160D9
:1015C000FFF75CFD054600BF306880073FF554AF6C
:1015D000FFF754FD401B0228F6D984E0A0680128DB
:1015E00005D005284ED1306F40F004003067306FD1
:1015F00040F0010030674FE00021C0F8801EFFF787
:101600003DFD0546706F80077FF540AFFFF736FD63
:10161000401B0228F6D966E00027C4F247270020C5
:101620003866FFF72BFD022D05460BD1306880018F
:101630005ED5FFF723FD401B02284FF00300F5D9CC
:1016400055E700BF306880017FF550AFFFF716FD0A
:10165000401B02284FF00300F4D948E70020C4F2F1
:10166000472000210160FFF709FD0546306880072B
:101670007FF509AFFFF702FD401B02284FF0030082
:10168000F4D934E7316F002821F001013167316F5F
:1016900021F0040131674DD0FFF7F0FC054641F21F
:1016A000883700BF306F800756D4FFF7E7FC401B38
:1016B000B842F7D917E000BF3168002821F4803123
:1016C0003160316821F4802131604FD0FFF7D6FCC2
:1016D000054600BF306880033FF5B7AEFFF7CEFC8C
:1016E000401B6428F6D9032002B0BDE8F08100BF9A
:1016F00004F11C052FCD084340EA8210D9034FF6B0
:10170000FF729143A1F5803140EA056008437060A3
:1017100001203866FFF7B2FC044600BF3068800144
:101720003FF5E4AEFFF7AAFC001B02284FF00300D0
:10173000F4D9DCE6FFF7A2FC054641F2883700BF8A
:10174000306F800708D5FFF799FC401BB8424FF077
:101750000300F5D9CBE600BFB8F1000F7FF499AED6
:10176000306C20F08050306493E600BFFFF786FCB9
:10177000054600BF306880037FF567AEFFF77EFC4B
:10178000401B64284FF00300F4D9B0E670B538B1BF
:101790000446406A30B10020206104F1140007E0E3
:1017A000012070BD6068B0F5827F03D004F11C0099
:1017B000002101600026A66294F8510020B920465D
:1017C00084F8506000F03CF8022084F8510094E85E
:1017D0000F0001F48271056802F4044225F040050F
:1017E0000560114403F400622369114403F002020E
:1017F0006369114403F00102A369E569114403F42C
:101800000072114405F03802256A114405F0800287
:10181000A56A114305F4005211430160626A042174
:1018200001EA134102F0100211444160C16921F440
:101830000061C1610120666584F85100304670BDC9
:101840002DE9F04385B0006843F20005C4F20105BC
:10185000A84203D005B0BDE8F08300BF002643F6E0
:1018600030000096C4F2020041696C4641F4805198
:10187000416141694FF0020801F4805100910099E3
:10188000009601684FF0030941F002010160016810
:10189000052701F00201009100990096016841F0CE
:1018A000010101600068214600F0010000900098ED
:1018B0001820009005F55440CDE90186CDF80C9034
:1018C0000497FFF701FB8020CDE9000805F55040A3
:1018D0002146CDE902690497FFF7F6FA05B0BDE8A5
:1018E000F0830000411E0020B0EB116F1CBF0120EF
:1018F00070474EF21002CEF2000251604EF62351B4
:10190000CEF20001F0230B70072190601160704748
:101910007047000070470000B0B590F83C20012AE5
:1019200004BF0220B0BD01F108053CCDD1E900CED5
:1019300023F47C5322F470521A432EF4F0431A43DA
:101940002CF4E0431A4324F4C0431A432A43C969E0
:1019500022F48042036811435964002180F83C104E
:101960000846B0BD10B590F83C20012A4FF00202A5
:1019700051D080F83D200268D2F804E0D2F808C0C7
:101980000C682EF07003234341F2FF74C4F200048C
:10199000A24253600EDC40F2FF73C4F200039A428D
:1019A00016DCB2F1804F2BD040F20043C4F20003AA
:1019B00024E000BF40F2FF33C4F201039A4213DC7B
:1019C00041F60003C4F200039A4219D0002313E049
:1019D00040F60003C4F200039A4211D040F60043DF
:1019E000C4F200030AE000BF44F20003C4F20103A2
:1019F0009A4205D040F20043C4F201039A4204D156
:101A000049682CF08003194391600121002280F87D
:101A10003D1080F83C20104610BD0000002804BF97
:101A20000120704710B5044690F83D0028B9002009
:101A300084F83C00204600F01FF8022084F83D00A6
:101A40002068211D01F0AEFD012084F8460084F8D5
:101A50003E0084F83F0084F8400084F8410084F898
:101A6000420084F8430084F8440084F8450084F878
:101A70003D00002010BD000081B00068A0F1804052
:101A8000A0F580604FEAB02004284AD8DFE800F0D3
:101A9000041649283A0000BF0020009043F6400099
:101AA000C4F20200016841F002010160006800F028
:101AB00002000090009801B0704700BF0020009025
:101AC00043F64000C4F20200016841F004010160E5
:101AD000006800F004000090009801B0704700BF5B
:101AE0000020009043F64000C4F20200016841F07B
:101AF00010010160006800F010000090009801B033
:101B0000704700BF0020009043F64000C4F202007E
:101B1000016841F020010160006800F020000090A1
:101B2000009801B07047000080B590F83C20012A71
:101B30004FF0020200F0C28080F83D20D0F800C0D3
:101B40004FF67772DCF8083023EA0202CCF808205E
:101B50000B684F2B28DC1F2B44DD202B45D0302B6E
:101B600043D0402B40F0AC80D1F804E0C968DCF8E9
:101B70002030DCF8202022F00102CCF82020DCF814
:101B8000182022F0F00242EA011123F00A0242EA90
:101B90000E02CCF81810CCF82020DCF8081041F028
:101BA000470121F0300180E06F2B27DDB3F5005FA6
:101BB00048D0B3F5805F7AD0702B40F08180D1E9B6
:101BC00001E3C968DCF8082043EA0E0322F47F42EF
:101BD00043EA01211143CCF80810DCF8081041F069
:101BE000770162E00BB1102B6AD1DCF8081021F00C
:101BF0007001194341F0070157E000BF502B35D069
:101C0000602B5DD1D1F804E0C968DCF8203023F006
:101C10001003CCF82030DCF81830DCF8202023F456
:101C2000704322F0A00243EA013142EA0E12CCF8DE
:101C30001810CCF82020DCF8081041F0670121F0E2
:101C4000100132E0D1E901E3C968DCF8082043EA79
:101C50000E0322F47F4243EA01211143CCF808101D
:101C6000DCF8081041F480411FE000BFD1F804E027
:101C7000C968DCF82030DCF8202022F00102CCF822
:101C80002020DCF8182022F0F00242EA011123F0B3
:101C90000A0242EA0E02CCF81810CCF82020DCF838
:101CA000081041F0570121F02001CCF80810002263
:101CB000012180F83D10002180F83C10104680BDC5
:101CC0000122F5E77047000010B501680446086975
:101CD000800744BFC8685FEA807039D4086940074C
:101CE00044BFC8685FEA40703ED40869000744BF3B
:101CF000C8685FEA007045D40869C00644BFC86878
:101D00005FEAC0604AD40869C0071CBFC8685FEAC0
:101D1000C07051D10869000644BFC8685FEA00601E
:101D200052D40869400644BFC8685FEA406053D493
:101D30000869800646BFC8685FEA806010BD6FF022
:101D4000200220460A61BDE81040FFF7E3BD00BF56
:101D50006FF002000861012020778869800743D076
:101D60002046FFF7AFFF45E06FF004000861022056
:101D70002077886910F4407F40D02046FFF7A2FF0B
:101D800042E000BF6FF00800086104202077C869B6
:101D900080073DD02046FFF795FF3FE06FF0100031
:101DA000086108202077C86910F4407F3AD02046A7
:101DB000FFF788FF3CE000BF6FF00100086120469C
:101DC00000F0A8FA2168A5E76FF0800008612046BE
:101DD000FFF79EFD2168A4E76FF0400008612046F0
:101DE00000F09AFA2168A3E7204600F005F92046A2
:101DF00000F08EFA2168002020776FE7204600F07F
:101E0000FBF8204600F084FA2168002020776CE778
:101E1000204600F0F1F8204600F07AFA2168002010
:101E2000207769E7204600F0E7F8204600F070FAD6
:101E300021680020207766E7F0B587B0006840F69B
:101E4000FF31C4F2000188424FF000010691CDE954
:101E50000411CDE9021131DD40F60041C4F2000168
:101E6000884257D040F20041C4F2010188426FD04D
:101E70000021C4F20101884240F0BB80002043F6FB
:101E800030010190C4F202010A6842F010020A60B7
:101E9000096801F01001019101994FF4D4410291B8
:101EA0000221CDE9031005900120069040F60000C4
:101EB000C4F2020000F5006497E000BF40F2004168
:101EC000C4F20001884275D040F60001C4F200015E
:101ED000884240F08E80002043F630010190C4F229
:101EE00002010A6842F008020A60096801F008016C
:101EF000019101994FF4804102910221CDE9031033
:101F0000CDE9050140F60000C4F2020000F580644E
:101F10006BE000BF002043F630010190C4F20201E3
:101F20000A6842F080020A60096801F080010191AC
:101F300001994FF4E05102910221CDE90310CDE95E
:101F4000050140F60000C4F2020000F5A0544CE088
:101F5000002543F630000195C4F20200016840F606
:101F6000000441F4807101600168C4F2020401F4CC
:101F700080710191019901950168022641F00401E7
:101F800001600068032700F0040001900198C02060
:101F9000029004F5C05002A9CDE9036505950697A6
:101FA000FEF792FF4020CDE90206CDE904550697E1
:101FB0001BE000BF002043F630010190C4F2020193
:101FC0000A6840F6000442F004020A600968C4F29C
:101FD000020401F00401019101994FF48071029112
:101FE0000221CDE90310CDE9050102A92046FEF743
:101FF0006BFF07B0F0BD0000704700002DE9F04313
:1020000090F83C30012B04BF0220BDE8F0834FEA7A
:10201000B202032A00F2FC80DFE802F0023E7EBE3C
:10202000036840F200471A6A43F4806522F0010217
:102030001A621C6A1A46D3F804E052F818CF8E6868
:1020400024F00204C4F20107BD4244EA060405D1AB
:10205000CE6824F00C0426F0040634430E68BD421A
:1020600007D1D1E905572EF4407E45EA0E0545EA31
:10207000070E2CF073073743C3F804E09F614F68E5
:1020800009695F631C629F6947F008079F619F6948
:1020900027F004079F61B1E0036840F200481A6A24
:1020A00043F4806522F010021A621C6A1A46D3F8C3
:1020B00004C052F818EF8F6824F02004C4F201081D
:1020C000454544EA071407D1CF686FF0400624F075
:1020D000C00406EA07163443D1F80090454506D1FE
:1020E000D1E905562CF440672E4347EA860C2EF4BE
:1020F000E64747EA0927C3F804C09F614F680969AA
:102100009F631C629F6947F400679F619F6927F482
:1021100080679F6171E000BF036840F200481A6A5F
:1021200043F4806522F480721A621C6A1A46D3F85E
:1021300004C052F81CEF8F6824F40074C4F2010844
:10214000454544EA072408D1CF6840F2FF463F02E4
:1021500024F4406427EA06063443D1F8009045454C
:1021600006D1D1E905562CF440572E4347EA061C08
:102170002EF0730747EA0907C3F804C0DF614F6810
:102180000969DF631C62DF6947F00807DF61DF6907
:1021900027F00407DF6131E0036840F200451A6A66
:1021A00043F4806722F480521A621A46D3F820C0A2
:1021B0005C6852F81CEFD1F800808E68C4F201050B
:1021C000AF4204D14D6924F4804444EA85142CF4D0
:1021D000005747EA06372EF4E64646EA08265C60D2
:1021E000DE614E6809691E641F62DF6947F400679B
:1021F000DF61DF6927F48067DF6109021368194333
:1022000011600021002280F83C200846BDE8F083E0
:102210000121002280F83C200846BDE8F083000040
:10222000002804BF0120704710B5044690F83D0017
:1022300028B9002084F83C00204600F01FF8022056
:1022400084F83D002068211D01F0ACF9012084F8DC
:10225000460084F83E0084F83F0084F8400084F88B
:10226000410084F8420084F8430084F8440084F874
:10227000450084F83D00002010BD000083B00068D8
:1022800040F60041C4F2000188421BD040F20041F8
:10229000C4F20101884229D00021C4F20101884220
:1022A00033D10020029043F64400C4F202000168DA
:1022B00041F001010160006800F001000290029805
:1022C00003B070470020019043F64400C4F20200BE
:1022D00050F8041C41F0080140F8041C50F8040CAC
:1022E00000F008000190019803B0704700200090B2
:1022F00043F64400C4F20200016841F002010160AB
:10230000006800F002000090009803B070470000E1
:1023100070470000704700007047000070B582B041
:10232000044690F83E0020280ED113460A460029A4
:102330004FF0010018BF002B02D102B070BD00BFEA
:1023400094F83C00012803D1022002B070BD00BF08
:10235000012084F83C00206300262220A262A3858D
:10236000266484F83E002168A06B43F6690C43F6AE
:10237000C51E43F2ED65C0F6000CC0F6000EC0F6B7
:1023800000050431C0E90FCEC0E91356FEF74CFD3D
:1023900001962068016801914068019001982069C8
:1023A00084F83C6030B300BF206850E8030F216818
:1023B00040F4807041E80302E2B1206850E8030F66
:1023C000216840F4807041E803029AB1206850E827
:1023D000030F216840F4807041E8030252B1206885
:1023E00050E8030F216840F4807041E80302002A9E
:1023F000DAD100BF206850E8050F216840F00100E5
:1024000041E80502E2B1206850E8050F216840F07C
:10241000010041E805029AB1206850E8050F2168E3
:1024200040F0010041E8050252B1206850E8050F74
:10243000216840F0010041E80502002ADAD100BF1E
:10244000206850E8050F216840F0400041E805028F
:10245000DAB1206850E8050F216840F0400041E8FB
:10246000050292B1206850E8050F216840F0400055
:1024700041E805024AB1206850E8050F216840F0A4
:10248000400041E80502002ADAD1206B01282FD153
:10249000002000902068016800914068009000983A
:1024A000206850E8030F216840F0100041E8030263
:1024B00012B3206850E8030F216840F0100041E893
:1024C0000302CAB1206850E8030F216840F01000F1
:1024D00041E8030282B1206850E8030F216840F010
:1024E000100041E80302002A4FF00000D8D124E791
:1024F000012002B070BD00BF002002B070BD00001E
:1025000010B5006844F60001C4F20001884218BF0B
:1025100010BD40F2924440F20040C2F20004C2F208
:10252000000021461222FFF7F9FE40F28840C2F275
:1025300000002146BDE8104001F0CCBB7047000010
:10254000B0B582B0044600680168C368426901F012
:102550002F05202D03F0200506D12DB1204602B015
:10256000BDE8B04001F038BA5FEA017C1EBF02F05E
:10257000010E03F4907212EB0E0253D1226B012A6A
:1025800005D111F0100218BF13F0100236D10A065F
:1025900022D513F080021FD094F83D1021293FD19D
:1025A000A168B1F5805F03D12169002900F0728232
:1025B000216A4A1C226209784160E18C01390A04CF
:1025C000E1842DD1C16821F08001C160C16841F072
:1025D0004001C16002B0B0BD490621D513F04001F1
:1025E0001ED0C16821F04001C1602021204684F83E
:1025F0003D1002B0BDE8B04000F078BB0021019171
:10260000016801914168019101994069400613D424
:10261000A08DE18DE28D002A18BF884240F0BE8176
:1026200002B0B0BDCA0718BF13F4807240F0BA8080
:102630004A0700F1BD80C2E0A16B0868426893B20E
:10264000002BEDD0A08D8342EAD2E285C969B1F5B5
:10265000807F00F09D80206850E8030F216820F4FF
:10266000807041E80302DAB1206850E8030F216866
:1026700020F4807041E8030292B1206850E8030F13
:10268000216820F4807041E803024AB1206850E8D4
:10269000030F216820F4807041E80302002ADAD198
:1026A000206850E8050F216820F0010041E805028C
:1026B000DAB1206850E8050F216820F0010041E8F8
:1026C000050292B1206850E8050F216820F0010052
:1026D00041E805024AB1206850E8050F216820F062
:1026E000010041E80502002ADAD1206850E8050F10
:1026F000216820F0400041E80502DAB1206850E886
:10270000050F216820F0400041E8050292B12068E1
:1027100050E8050F216820F0400041E805024AB169
:10272000206850E8050F216820F0400041E80502CC
:10273000002ADAD1202084F83E000020206320689F
:1027400050E8030F216820F0100041E80302DAB1DD
:10275000206850E8030F216820F0100041E80302D0
:1027600092B1206850E8030F216820F0100041E882
:1027700003024AB1206850E8030F216820F01000DE
:1027800041E80302002ADAD1A06BFEF761F9A08DBF
:10279000E18D401A81B2204602B0BDE8B040FFF79B
:1027A000AFBE00BF226C42F0010222644A0706D588
:1027B000BEF1000F03D0226C42F0020222648A07AD
:1027C00006D5BEF1000F03D0226C42F00402226451
:1027D000BCF1000F09D545EA0E02B2FA82F25209A5
:1027E00003D1226C42F008022264226C002A3FF4DA
:1027F00017AF11F0200118BF002D03D0204601F0C3
:10280000EBF820684069216C00F0400001F00801FD
:10281000401800F0B58000BF206850E8030F216821
:1028200020F4907041E80302BAB3206850E8030F27
:10283000216820F4907041E8030272B3206850E8E8
:10284000030F216820F4907041E803022AB3206846
:1028500050E8030F216820F4907041E80302002A39
:10286000DAD11AE0206850E8050F216820F0010055
:1028700041E80502DAB1206850E8050F216820F030
:10288000010041E8050292B1206850E8050F216877
:1028900020F0010041E805024AB1206850E8050F28
:1028A000216820F0010041E80502002ADAD1206BFE
:1028B000012824D1206850E8030F216820F010007F
:1028C00041E80302DAB1206850E8030F216820F0E4
:1028D000100041E8030292B1206850E8030F21681C
:1028E00020F0100041E803024AB1206850E8030FCD
:1028F000216820F0100041E80302002ADAD12020EC
:1029000084F83E00002020632068406940063FD5DF
:10291000206850E8050F216820F0400041E80502DA
:10292000DAB1206850E8050F216820F0400041E846
:10293000050292B1206850E8050F216820F04000A0
:1029400041E805024AB1206850E8050F216820F0EF
:10295000400041E80502002ADAD1A06BC0B143F281
:10296000E161C0F600010165FEF7BAF800283FF406
:1029700057AEA06B016D02B0BDE8B040084700BF84
:102980002046FFF7DBFD0020206402B0B0BD00BF91
:10299000204602B0BDE8B040FFF7D0BD401A216824
:1029A00051E8031F226821F4907142E80313DBB160
:1029B000216851E8031F226821F4907142E8031353
:1029C00093B1216851E8031F226821F4907142E815
:1029D00003134BB1216851E8031F226821F4907161
:1029E00042E80313002BDAD1216851E8051F226861
:1029F00021F0010142E80513DBB1216851E8051F10
:102A0000226821F0010142E8051393B1216851E8E1
:102A1000051F226821F0010142E805134BB121682E
:102A200051E8051F226821F0010142E80513002B3F
:102A3000DAD1202184F83E1000212163216851E879
:102A4000031F226821F0100142E80313002B3FF41A
:102A5000A1AE216851E8031F226821F0100142E86D
:102A60000313002B3FF496AE216851E8031F226840
:102A700021F0100142E80313002B3FF48BAE2168D4
:102A800051E8031F226821F0100142E80313002BD4
:102A9000D4D17FE6216A31F8022B6FF35F224260C6
:102AA00021628AE5002804BF0120704710B5044662
:102AB00090F83D0028B9002084F83C00204600F042
:102AC00021F8242084F83D002068C16821F40051D9
:102AD000C160204601F000F82068016921F49041AE
:102AE0000161416921F02A014161C16841F400514D
:102AF000C16000202021206484F83D1084F83E103D
:102B000010BD00002DE9F04387B00446006844F68C
:102B10000001C4F2000100268842CDE90566CDE936
:102B20000366029654D041F20041C4F2010188428A
:102B300000F0AA8041F20001C4F20101884240F095
:102B4000CE80002643F630000196C4F202004169AF
:102B5000002441F0100141614169C4F2020401F016
:102B60001001019101990196016802AD41F0020145
:102B7000016001684FF0020801F002010191019922
:102B8000019601684FF0030941F0010101600068FE
:102B9000072700F00100019001988020029004F5C1
:102BA00080602946CDE90386CDF814900697FEF79C
:102BB0008BF94FF40070CDE9020820462946CDE993
:102BC00004690697FEF780F907B0BDE8F08300BFFF
:102BD00043F630000196C4F20200016941F48021FD
:102BE0000161016901F48021019101990196016857
:102BF00041F004010160006802A900F004000190A6
:102C000001984FF4406002900220CDE903060320B2
:102C10000590072006900020C4F2020000F5006035
:102C2000FEF752F940F20C1546F22800C2F20005F8
:102C3000C4F202004FF480624FF0006185E8430067
:102C4000C5E903624FF4403005F120024FF4807370
:102C5000042143C22846C5E90566EB61C5E90B6658
:102C6000FEF730F8002818BFFDF7C4FB272000212D
:102C70000022A563AC63FEF785FA2720FEF76EFA03
:102C800007B0BDE8F08300BF002043F6300101909B
:102C9000C4F202014A6942F020024A614A6902F024
:102CA00020020192019A01900A6842F040020A60F3
:102CB000096801F04001019101994FF484410291AA
:102CC0000221CDE903100320059008200690002082
:102CD000C4F2020000F5C05002A9FEF7F5F807B0F3
:102CE000BDE8F083704700007047000070470000A7
:102CF000FEE7000010B584B040F27400C2F200009C
:102D000042F2002C4FF080544FF000620021C4F2D8
:102D1000010C4FF48033C0E90A24012403910176A9
:102D200080F82010C46180F83010C0E900C3C0E909
:102D30000211C0E90414FDF7A7FC002818BFFDF735
:102D400059FB0820CDE900040220029040F27400F3
:102D5000C2F200006946FDF753FB002818BFFDF7DB
:102D600049FB04B010BD000080B540F2BC0046F243
:102D70000041C2F20000C4F200010322002380E8F7
:102D80000E0000F10C014FF4102C4FF4001E81E8EE
:102D900008504FF480710183C0F81A30FDF75AFDD6
:102DA000002808BF80BDBDE88040FDF723BB0000C0
:102DB00080B540F2E40046F60001C2F20000C4F221
:102DC00000010322002380E80E0000F10C014FF403
:102DD000102C4FF4001E81E808504FF480710183DD
:102DE000C0F81A30FDF736FD002808BF80BDBDE8E9
:102DF0008040FDF7FFBA000081B00020009043F64C
:102E00003000C4F20200016841F400110160006862
:102E100000F400100090009801B070472DE9F043D5
:102E200087B0002743F63000CDE905770197C4F25B
:102E300002000168002541F0020101600168C4F24E
:102E4000020501F002010191019901970168012237
:102E500041F04001016001684FF0100901F04001AC
:102E60000191019901970168012641F0010101607A
:102E7000016801F00101019101990197016841F098
:102E800008010160016801F00801019101990197B1
:102E9000016841F004010160016801F00401019141
:102EA00001990197016841F480710160016801F4A2
:102EB0008071019101990197016841F080010160E1
:102EC000016801F08001019101990197016841F0C9
:102ED00020010160016801F0200101910199019731
:102EE000016841F0100101600068102100F010003D
:102EF000019001982846FEF7BBF805F5806420464E
:102F000001210122FEF7B4F84FF488100DF10808F2
:102F1000CDE90307284641460296FDF7D5FF28462E
:102F20004146CDE90296CDE90467FDF7CDFF204685
:102F30004146CDE90266CDE90467FDF7C5FF07B05C
:102F4000BDE8F083B0B540F26C1043F20001C2F26C
:102F50000000C4F201014FF48272002380E80E00E9
:102F600000F10C014FF0020C4FF0010E4FF4007411
:102F7000182581E808500A21C0E90645C0E9083350
:102F8000C0E90A31FEF702FC002808BFB0BDBDE869
:102F9000B040FDF72FBA000080B592B040F2C410E7
:102FA00000220021C2F20000C4F201024FF6FF73BA
:102FB0001191CDE90F11CDE90D11CDE90B11CDE93D
:102FC0000911CDE90711CDE90511CDE90311CDE9CD
:102FD0000111C0E90021C0E90213C0E904118161B7
:102FE000FFF71EF9002818BFFDF704FA40F2C410DD
:102FF000C2F2000010A9FEF7B5FC002818BFFDF7CB
:10300000F9F9602009900020CDE90A00CDE90C0013
:10301000CDE90E0040F2C410C2F2000009A900225E
:10302000FEF7ECFF002818BFFDF7E4F940F2C410EA
:10303000C2F2000009A90422FEF7E0FF002818BF31
:10304000FDF7D8F940F2C410C2F2000009A9082225
:10305000FEF7D4FF002818BFFDF7CCF940F2C410EA
:10306000C2F2000009A90C22FEF7C8FF002818BF11
:10307000FDF7C0F900200590CDE90300CDE901007E
:103080004FF40051089040F2C4100691C2F20000C3
:1030900001A9FEF741FC002818BFFDF7ABF940F28B
:1030A000C410C2F20000FEF7C7FE12B080BD0000DF
:1030B00010B58EB040F20C2040F200420021C2F266
:1030C0000000C4F200024FF6FF730D91CDE90B1121
:1030D0000991CDE90711CDE90511CDE90311CDE93C
:1030E0000111C0E90021C0E9021301618161FEF70D
:1030F00095FC002818BFFDF77DF94FF480500A9029
:1031000040F20C20C2F200000AA9FEF70DFD0028D3
:1031100018BFFDF76FF940F20C20C2F20000FFF774
:103120007FF8002818BFFDF765F92020089040F2CD
:103130000C200024C2F2000008A90994FEF712FC3A
:10314000002818BFFDF756F96020CDE9010440F2D0
:103150000C20C2F2000001A9082203940594FEF796
:103160004DFF002818BFFDF745F940F20C20C2F2D0
:103170000000FEF761FE0EB010BD000010B58EB06D
:1031800040F2542040F600020021C2F20000C4F2D6
:1031900000024FF6FF730D91CDE90B110991CDE9B6
:1031A0000711CDE90511CDE90311CDE90111C0E900
:1031B0000021C0E90213016180218161FEF72EFC2C
:1031C000002818BFFDF716F94FF480500A9040F21E
:1031D0005420C2F200000AA9FEF7A6FC002818BF7E
:1031E000FDF708F940F25420C2F20000FFF718F88A
:1031F000002818BFFDF7FEF840F254200024C2F268
:10320000000008A9CDE90844FEF7ACFB002818BF70
:10321000FDF7F0F86020CDE9010440F25420C2F23D
:10322000000001A9082203940594FEF7E7FE002898
:1032300018BFFDF7DFF840F25420C2F20000FEF79D
:10324000FBFD0EB010BD000080B58AB040F29C209E
:1032500040F600420021C2F20000C4F200026323E3
:10326000CDE90811CDE90611CDE90411C0E900212D
:10327000C0E9021301618161FEF7D2FF002818BF87
:10328000FDF7B8F840F29C20C2F2000008A9FEF752
:1032900069FB002818BFFDF7ADF860200190002001
:1032A000CDE90200059040F29C20C2F2000001A985
:1032B0000022FEF7A3FE002818BFFDF79BF840F29E
:1032C0009C20C2F2000001A90422FEF797FE00280C
:1032D00018BFFDF78FF840F29C20C2F2000001A950
:1032E0000822FEF78BFE002818BFFDF783F840F296
:1032F0009C20C2F20000FEF79FFD0AB080BD0000D6
:1033000080B582B040F2E42041F200020021C2F216
:103310000000C4F20002532340F2E73CCDE9001163
:10332000C0E90023C0E9021C8161FEF777FB002899
:1033300018BFFDF75FF840F2E420C2F200006946D2
:10334000FEF710FB002818BFFDF754F802B080BD4F
:1033500080B582B040F22C3041F200420021C2F22E
:103360000000C4F20002532340F2E73CCDE9001113
:10337000C0E90023C0E9021C8161FEF74FFB002871
:1033800018BFFDF737F840F22C30C2F20000694652
:10339000FEF7E8FA002818BFFDF72CF802B080BD50
:1033A00080B592B040F2743040F200420021C2F287
:1033B0000000C4F201024FF6FF731191CDE90F1125
:1033C000CDE90D11CDE90B11CDE90911CDE90711B9
:1033D000CDE90511CDE90311CDE90111C0E90021C5
:1033E000C0E90213C0E904118161FEF719FF00284A
:1033F00018BFFCF7FFFF40F27430C2F2000010A9C2
:10340000FEF7B0FA002818BFFCF7F4FF602009901F
:103410000020CDE90A00CDE90C00CDE90E0040F214
:103420007430C2F2000009A90022FEF7E7FD00286F
:1034300018BFFCF7DFFF40F27430C2F2000009A9A8
:103440000422FEF7DBFD002818BFFCF7D3FF40F293
:103450007430C2F2000009A90822FEF7CFFD00284F
:1034600018BFFCF7C7FF00200590CDE90300CDE9A8
:1034700001004FF40051089040F274300691C2F2FE
:10348000000001A9FEF748FA002818BFFCF7B2FFB8
:1034900040F27430C2F20000FEF7CEFC12B080BDE4
:1034A00080B540F2BC3041F20001C2F20000C4F22B
:1034B000010148F2A06200234FF00C0CC0F201029F
:1034C00080E80E00C0E90333C0E905C3C361FFF71C
:1034D000E9FA002808BF80BDBDE88040FCF78ABF3C
:1034E00080B540F2004044F60001C2F20000C4F290
:1034F000000148F2A062C0F20102002380E80E0041
:1035000000F10C014FF4806C4FF0040E81E808507C
:10351000C0E90633FFF7C6FA002808BF80BDBDE842
:103520008040FCF767BF000080B540F2444041F2A4
:103530000041C2F20000C4F2010100234FF00C0C64
:103540004FF4E13280E80E00C0E90333C0E905C35F
:10355000C361FFF7A7FA002808BF80BDBDE880401F
:10356000FCF748BFFEE70000FEE7000070470000E0
:1035700070470000FDF788BD4EF68850CEF200007F
:10358000016841F4700101607047000040F2E420DE
:10359000C2F20000FEF798BB40F22C30C2F20000ED
:1035A000FEF792BB10B540F6FF3E0368C4F2000E72
:1035B00040F2004C7045C4F2010C27DCB0F1804FA2
:1035C00031D040F20042C4F2000290422BD040F6CB
:1035D0000002C4F20002904225D041F6FF72C4F20C
:1035E0000002904229DC70453CDCB0F1804F5FD096
:1035F00040F20042C4F20002904259D040F600026C
:10360000C4F20002904253D056E000BF40F60042A0
:10361000C4F20002904206D0604504D00022C4F2F9
:1036200001029042D9D14A6823F07003134341F656
:10363000FF72C4F200029042D5DD43F6FF72C4F27D
:103640000102904222DC42F20002C4F200029042E7
:103650002ED00022C4F20102904229D0604527D02A
:103660002AE000BF40F60042C4F2000290421FD0A0
:1036700041F60002C4F20002904219D041F6004225
:10368000C4F20002904213D016E000BF44F20002E0
:10369000C4F2010290420BD044F60002C4F20102CF
:1036A000904205D044F20042C4F20102904203D19C
:1036B000CA6823F44073134323F080024B69D1F8A6
:1036C00000E08C681A430260C46240F48062C0F873
:1036D00028E0624504BF096901630121416110BD11
:1036E000806B0021C185C184FEF728BF806B016813
:1036F0004A6990F83D30212B2DD112F080022AD05A
:103700000021C184016851E8031F026821F0C00153
:1037100042E80313DBB1016851E8031F026821F09E
:10372000C00142E8031393B1016851E8031F026826
:1037300021F0C00142E803134BB1016851E8031FB7
:10374000026821F0C00142E80313002BDAD12021E6
:1037500080F83D100168496990F83E20222A40F027
:103760007D8011F0400179D00021C185016851E8C8
:10377000031F026821F4907142E80313BBB3016890
:1037800051E8031F026821F4907142E8031373B3F8
:10379000016851E8031F026821F4907142E80313A5
:1037A0002BB3016851E8031F026821F4907142E8CD
:1037B0000313002BDAD11AE0016851E8051F0268F3
:1037C00021F0010142E80513DBB1016851E8051F52
:1037D000026821F0010142E8051393B1016851E844
:1037E000051F026821F0010142E805134BB1016891
:1037F00051E8051F026821F0010142E80513002B82
:10380000DAD1016B012924D1016851E8031F026854
:1038100021F0100142E80313DBB1016851E8031FF6
:10382000026821F0100142E8031393B1016851E8E6
:10383000031F026821F0100142E803134BB1016835
:1038400051E8031F026821F0100142E80313002B26
:10385000DAD1202180F83E1000210163016C41F093
:1038600010010164FEF76ABE0168806B0968C90532
:1038700000F19F800021C185016851E8031F0268A3
:1038800021F4807142E80313E3B1016851E8031F9A
:10389000026821F4807142E803139BB1016851E88A
:1038A000031F026821F4807142E8031353B10168D9
:1038B00051E8031F026821F4807142E80313002BD2
:1038C000DAD100BF016851E8051F026821F001014B
:1038D00042E80513BBB3016851E8051F026821F0F7
:1038E000010142E8051373B3016851E8051F02683E
:1038F00021F0010142E805132BB3016851E8051FCF
:10390000026821F0010142E80513002BDAD11AE028
:10391000016851E8051F026821F0400142E80513E3
:10392000DBB1016851E8051F026821F0400142E85F
:10393000051393B1016851E8051F026821F04001A9
:1039400042E805134BB1016851E8051F026821F0F8
:10395000400142E80513002BDAD1202180F83E1007
:10396000016B012925D100BF016851E8031F0268DE
:1039700021F0100142E80313DBB1016851E8031F95
:10398000026821F0100142E8031393B1016851E885
:10399000031F026821F0100142E803134BB10168D4
:1039A00051E8031F026821F0100142E80313002BC5
:1039B000DAD1016B012918BFFFF794B9818DFEF7A9
:1039C0009FBD0000806B016B012918BFFFF78CB908
:1039D000818D4908FEF794BD81B090F83E102229F0
:1039E00021D183680246B3F5805F09D152F8281FC0
:1039F00052F8183C002B63D003685B680AE000BFF4
:103A000052F8281F13B90369002BF5D003685B68CF
:103A100003F07F030B70116801311160C18D013912
:103A20000A04C18502D001B0704700BF0168CA68AE
:103A300022F02002CA60CA6822F48072CA604A6911
:103A400022F001024A61202180F83E10016B012919
:103A50003ED10021016300BF016851E8031F0268E5
:103A600021F0100142E80313DBB1016851E8031FA4
:103A7000026821F0100142E8031393B1016851E894
:103A8000031F026821F0100142E803134BB10168E3
:103A900051E8031F026821F0100142E80313002BD4
:103AA000DAD101680A68D20606D5002200920A68B7
:103AB0000092496800910099818D01B0FEF720BD08
:103AC000026852686FF35F2221F8022B8162A5E73A
:103AD00001B0FFF707B9000010B504460068D4E94B
:103AE00002C22369016921F44051114301616269F5
:103AF00043EA0C01E3691143C268194349F20C63BC
:103B00009A431143C1604169A26921F4407141F2B5
:103B10000043114340F48062C4F201039A424161C0
:103B200002D1FDF72FFC01E0FDF718FCE1696368A5
:103B30001922B1F5004FA0FB020123D15A00DB0F7F
:103B4000FCF792FB48F21F51C5F2EB11A0FB0123D9
:103B50005A094FF69C73C0F6FF7303F1805302FBC2
:103B60000300322303EBC000A0FB01014FF4F87007
:103B700000EA111000EB0210C1F342110844216861
:103B8000886010BD9A009B0FFCF76EFB48F21F5136
:103B9000C5F2EB11A0FB01235A094FF69C73C0F646
:103BA000FF7302FB0300322303EB0010A0FB0101B3
:103BB000F02000EA511000EB0210C1F34311084459
:103BC0002168886010BD000040F2BC30C2F20000E5
:103BD000FEF7B6BC40F20040C2F20000FEF7B0BCF7
:103BE00040F24440C2F20000FEF7AABCFEE700002B
:103BF000B0B592B0002443F640000A94CDE90844E1
:103C00000594CDE90344CDE901440094C4F20200D7
:103C10000168022541F080510160006800F0805089
:103C20000090009847F200000094C4F20000016880
:103C300041F480410160006800F4804000900098E9
:103C4000092006904FF48030079001200B904FF42C
:103C500080000D9006200E90A820CDE90F050420CD
:103C6000119006A80C95FDF7D7FBA8B90F20CDE958
:103C700001054FF4A05004904FF48050059001A826
:103C800005210394FDF7BAFA002804BF12B0B0BDB5
:103C9000EFF3108072B600BFEFF3108072B6000031
:103CA00040F28840C2F20000AFF3008003460020DB
:103CB0005860186040F2004040F2924140F2033CEC
:103CC000C2F20000C2F200011222A3F808C0FEF7FF
:103CD00025BB00000A784B7863F30A2202804A78F9
:103CE0008B78D20863F34A124280CB788A7891F8B5
:103CF00004C09B0043EA92126CF38A2282804A79C4
:103D00000B7902F07F02120142EA5302C2804A7923
:103D1000C2F30112027249798909017270470000E9
:103D2000FDF7C0F9FFF764FFFFF778F8FFF764F8D5
:103D3000FFF7FAFBFEF7DEFFFFF716F8FFF738F89C
:103D4000FFF700F9FFF728F9FFF7B2F9FFF716FAC6
:103D5000FFF77AFAFFF7D4FAFFF7FAFAFFF720FB3A
:103D6000FFF79EFBFFF7BCFBFFF79AFFF1EE100A8F
:103D70004FF6FF71C0F2C03120EA010040F0407000
:103D8000E1EE100A70470000000000000000010290
:103D900003040607080900000000010203040006EE
:103DA0001016000610160000C83D00080000002094
:103DB00010000000C4010008D83D000810000020D9
:103DC00098340000E001000801000000100000002D
:083DD0000024F40000000000D3
:040000050800018965
:00000001FF
